{
	"contracts/Twitter.sol": {
		"Twitter": {
			"abi": [
				{
					"inputs": [
						{
							"internalType": "string",
							"name": "_tweet",
							"type": "string"
						}
					],
					"name": "createTweet",
					"outputs": [],
					"stateMutability": "nonpayable",
					"type": "function"
				},
				{
					"inputs": [
						{
							"internalType": "address",
							"name": "_owner",
							"type": "address"
						}
					],
					"name": "getAllTweets",
					"outputs": [
						{
							"components": [
								{
									"internalType": "address",
									"name": "author",
									"type": "address"
								},
								{
									"internalType": "string",
									"name": "content",
									"type": "string"
								},
								{
									"internalType": "uint256",
									"name": "timestamp",
									"type": "uint256"
								},
								{
									"internalType": "uint256",
									"name": "likes",
									"type": "uint256"
								}
							],
							"internalType": "struct Twitter.Tweet[]",
							"name": "",
							"type": "tuple[]"
						}
					],
					"stateMutability": "view",
					"type": "function"
				},
				{
					"inputs": [
						{
							"internalType": "address",
							"name": "_owner",
							"type": "address"
						},
						{
							"internalType": "uint256",
							"name": "_i",
							"type": "uint256"
						}
					],
					"name": "getTweet",
					"outputs": [
						{
							"components": [
								{
									"internalType": "address",
									"name": "author",
									"type": "address"
								},
								{
									"internalType": "string",
									"name": "content",
									"type": "string"
								},
								{
									"internalType": "uint256",
									"name": "timestamp",
									"type": "uint256"
								},
								{
									"internalType": "uint256",
									"name": "likes",
									"type": "uint256"
								}
							],
							"internalType": "struct Twitter.Tweet",
							"name": "",
							"type": "tuple"
						}
					],
					"stateMutability": "view",
					"type": "function"
				}
			],
			"devdoc": {
				"kind": "dev",
				"methods": {},
				"version": 1
			},
			"evm": {
				"assembly": "    /* \"contracts/Twitter.sol\":63:960  contract Twitter {... */\n  mstore(0x40, 0x80)\n  callvalue\n  dup1\n  iszero\n  tag_1\n  jumpi\n  0x00\n  dup1\n  revert\ntag_1:\n  pop\n  dataSize(sub_0)\n  dup1\n  dataOffset(sub_0)\n  0x00\n  codecopy\n  0x00\n  return\nstop\n\nsub_0: assembly {\n        /* \"contracts/Twitter.sol\":63:960  contract Twitter {... */\n      mstore(0x40, 0x80)\n      callvalue\n      dup1\n      iszero\n      tag_1\n      jumpi\n      0x00\n      dup1\n      revert\n    tag_1:\n      pop\n      jumpi(tag_2, lt(calldatasize, 0x04))\n      shr(0xe0, calldataload(0x00))\n      dup1\n      0x112f54e3\n      eq\n      tag_3\n      jumpi\n      dup1\n      0x12e7ee1c\n      eq\n      tag_4\n      jumpi\n      dup1\n      0x7c9cd2bc\n      eq\n      tag_5\n      jumpi\n    tag_2:\n      0x00\n      dup1\n      revert\n        /* \"contracts/Twitter.sol\":711:833  function getTweet(address _owner, uint _i) public view returns (Tweet memory) {... */\n    tag_3:\n      tag_6\n      0x04\n      dup1\n      calldatasize\n      sub\n      dup2\n      add\n      swap1\n      tag_7\n      swap2\n      swap1\n      tag_8\n      jump\t// in\n    tag_7:\n      tag_9\n      jump\t// in\n    tag_6:\n      mload(0x40)\n      tag_10\n      swap2\n      swap1\n      tag_11\n      jump\t// in\n    tag_10:\n      mload(0x40)\n      dup1\n      swap2\n      sub\n      swap1\n      return\n        /* \"contracts/Twitter.sol\":841:955  function getAllTweets(address _owner) public view returns (Tweet[] memory){... */\n    tag_4:\n      tag_12\n      0x04\n      dup1\n      calldatasize\n      sub\n      dup2\n      add\n      swap1\n      tag_13\n      swap2\n      swap1\n      tag_14\n      jump\t// in\n    tag_13:\n      tag_15\n      jump\t// in\n    tag_12:\n      mload(0x40)\n      tag_16\n      swap2\n      swap1\n      tag_17\n      jump\t// in\n    tag_16:\n      mload(0x40)\n      dup1\n      swap2\n      sub\n      swap1\n      return\n        /* \"contracts/Twitter.sol\":316:703  function createTweet(string memory _tweet) public {... */\n    tag_5:\n      tag_18\n      0x04\n      dup1\n      calldatasize\n      sub\n      dup2\n      add\n      swap1\n      tag_19\n      swap2\n      swap1\n      tag_20\n      jump\t// in\n    tag_19:\n      tag_21\n      jump\t// in\n    tag_18:\n      stop\n        /* \"contracts/Twitter.sol\":711:833  function getTweet(address _owner, uint _i) public view returns (Tweet memory) {... */\n    tag_9:\n        /* \"contracts/Twitter.sol\":775:787  Tweet memory */\n      tag_22\n      tag_23\n      jump\t// in\n    tag_22:\n        /* \"contracts/Twitter.sol\":807:813  tweets */\n      0x00\n        /* \"contracts/Twitter.sol\":807:821  tweets[_owner] */\n      dup1\n        /* \"contracts/Twitter.sol\":814:820  _owner */\n      dup5\n        /* \"contracts/Twitter.sol\":807:821  tweets[_owner] */\n      0xffffffffffffffffffffffffffffffffffffffff\n      and\n      0xffffffffffffffffffffffffffffffffffffffff\n      and\n      dup2\n      mstore\n      0x20\n      add\n      swap1\n      dup2\n      mstore\n      0x20\n      add\n      0x00\n      keccak256\n        /* \"contracts/Twitter.sol\":822:824  _i */\n      dup3\n        /* \"contracts/Twitter.sol\":807:825  tweets[_owner][_i] */\n      dup2\n      sload\n      dup2\n      lt\n      tag_25\n      jumpi\n      tag_26\n      tag_27\n      jump\t// in\n    tag_26:\n    tag_25:\n      swap1\n      0x00\n      mstore\n      keccak256(0x00, 0x20)\n      swap1\n      0x04\n      mul\n      add\n        /* \"contracts/Twitter.sol\":800:825  return tweets[_owner][_i] */\n      mload(0x40)\n      dup1\n      0x80\n      add\n      0x40\n      mstore\n      swap1\n      dup2\n      0x00\n      dup3\n      add\n      0x00\n      swap1\n      sload\n      swap1\n      0x0100\n      exp\n      swap1\n      div\n      0xffffffffffffffffffffffffffffffffffffffff\n      and\n      0xffffffffffffffffffffffffffffffffffffffff\n      and\n      0xffffffffffffffffffffffffffffffffffffffff\n      and\n      dup2\n      mstore\n      0x20\n      add\n      0x01\n      dup3\n      add\n      dup1\n      sload\n      tag_29\n      swap1\n      tag_30\n      jump\t// in\n    tag_29:\n      dup1\n      0x1f\n      add\n      0x20\n      dup1\n      swap2\n      div\n      mul\n      0x20\n      add\n      mload(0x40)\n      swap1\n      dup2\n      add\n      0x40\n      mstore\n      dup1\n      swap3\n      swap2\n      swap1\n      dup2\n      dup2\n      mstore\n      0x20\n      add\n      dup3\n      dup1\n      sload\n      tag_31\n      swap1\n      tag_30\n      jump\t// in\n    tag_31:\n      dup1\n      iszero\n      tag_32\n      jumpi\n      dup1\n      0x1f\n      lt\n      tag_33\n      jumpi\n      0x0100\n      dup1\n      dup4\n      sload\n      div\n      mul\n      dup4\n      mstore\n      swap2\n      0x20\n      add\n      swap2\n      jump(tag_32)\n    tag_33:\n      dup3\n      add\n      swap2\n      swap1\n      0x00\n      mstore\n      keccak256(0x00, 0x20)\n      swap1\n    tag_34:\n      dup2\n      sload\n      dup2\n      mstore\n      swap1\n      0x01\n      add\n      swap1\n      0x20\n      add\n      dup1\n      dup4\n      gt\n      tag_34\n      jumpi\n      dup3\n      swap1\n      sub\n      0x1f\n      and\n      dup3\n      add\n      swap2\n    tag_32:\n      pop\n      pop\n      pop\n      pop\n      pop\n      dup2\n      mstore\n      0x20\n      add\n      0x02\n      dup3\n      add\n      sload\n      dup2\n      mstore\n      0x20\n      add\n      0x03\n      dup3\n      add\n      sload\n      dup2\n      mstore\n      pop\n      pop\n      swap1\n      pop\n        /* \"contracts/Twitter.sol\":711:833  function getTweet(address _owner, uint _i) public view returns (Tweet memory) {... */\n      swap3\n      swap2\n      pop\n      pop\n      jump\t// out\n        /* \"contracts/Twitter.sol\":841:955  function getAllTweets(address _owner) public view returns (Tweet[] memory){... */\n    tag_15:\n        /* \"contracts/Twitter.sol\":900:914  Tweet[] memory */\n      0x60\n        /* \"contracts/Twitter.sol\":933:939  tweets */\n      0x00\n        /* \"contracts/Twitter.sol\":933:947  tweets[_owner] */\n      dup1\n        /* \"contracts/Twitter.sol\":940:946  _owner */\n      dup4\n        /* \"contracts/Twitter.sol\":933:947  tweets[_owner] */\n      0xffffffffffffffffffffffffffffffffffffffff\n      and\n      0xffffffffffffffffffffffffffffffffffffffff\n      and\n      dup2\n      mstore\n      0x20\n      add\n      swap1\n      dup2\n      mstore\n      0x20\n      add\n      0x00\n      keccak256\n        /* \"contracts/Twitter.sol\":926:947  return tweets[_owner] */\n      dup1\n      sload\n      dup1\n      0x20\n      mul\n      0x20\n      add\n      mload(0x40)\n      swap1\n      dup2\n      add\n      0x40\n      mstore\n      dup1\n      swap3\n      swap2\n      swap1\n      dup2\n      dup2\n      mstore\n      0x20\n      add\n      0x00\n      swap1\n    tag_36:\n      dup3\n      dup3\n      lt\n      iszero\n      tag_37\n      jumpi\n      dup4\n      dup3\n      swap1\n      0x00\n      mstore\n      keccak256(0x00, 0x20)\n      swap1\n      0x04\n      mul\n      add\n      mload(0x40)\n      dup1\n      0x80\n      add\n      0x40\n      mstore\n      swap1\n      dup2\n      0x00\n      dup3\n      add\n      0x00\n      swap1\n      sload\n      swap1\n      0x0100\n      exp\n      swap1\n      div\n      0xffffffffffffffffffffffffffffffffffffffff\n      and\n      0xffffffffffffffffffffffffffffffffffffffff\n      and\n      0xffffffffffffffffffffffffffffffffffffffff\n      and\n      dup2\n      mstore\n      0x20\n      add\n      0x01\n      dup3\n      add\n      dup1\n      sload\n      tag_39\n      swap1\n      tag_30\n      jump\t// in\n    tag_39:\n      dup1\n      0x1f\n      add\n      0x20\n      dup1\n      swap2\n      div\n      mul\n      0x20\n      add\n      mload(0x40)\n      swap1\n      dup2\n      add\n      0x40\n      mstore\n      dup1\n      swap3\n      swap2\n      swap1\n      dup2\n      dup2\n      mstore\n      0x20\n      add\n      dup3\n      dup1\n      sload\n      tag_40\n      swap1\n      tag_30\n      jump\t// in\n    tag_40:\n      dup1\n      iszero\n      tag_41\n      jumpi\n      dup1\n      0x1f\n      lt\n      tag_42\n      jumpi\n      0x0100\n      dup1\n      dup4\n      sload\n      div\n      mul\n      dup4\n      mstore\n      swap2\n      0x20\n      add\n      swap2\n      jump(tag_41)\n    tag_42:\n      dup3\n      add\n      swap2\n      swap1\n      0x00\n      mstore\n      keccak256(0x00, 0x20)\n      swap1\n    tag_43:\n      dup2\n      sload\n      dup2\n      mstore\n      swap1\n      0x01\n      add\n      swap1\n      0x20\n      add\n      dup1\n      dup4\n      gt\n      tag_43\n      jumpi\n      dup3\n      swap1\n      sub\n      0x1f\n      and\n      dup3\n      add\n      swap2\n    tag_41:\n      pop\n      pop\n      pop\n      pop\n      pop\n      dup2\n      mstore\n      0x20\n      add\n      0x02\n      dup3\n      add\n      sload\n      dup2\n      mstore\n      0x20\n      add\n      0x03\n      dup3\n      add\n      sload\n      dup2\n      mstore\n      pop\n      pop\n      dup2\n      mstore\n      0x20\n      add\n      swap1\n      0x01\n      add\n      swap1\n      jump(tag_36)\n    tag_37:\n      pop\n      pop\n      pop\n      pop\n      swap1\n      pop\n        /* \"contracts/Twitter.sol\":841:955  function getAllTweets(address _owner) public view returns (Tweet[] memory){... */\n      swap2\n      swap1\n      pop\n      jump\t// out\n        /* \"contracts/Twitter.sol\":316:703  function createTweet(string memory _tweet) public {... */\n    tag_21:\n        /* \"contracts/Twitter.sol\":124:127  280 */\n      0x0118\n        /* \"contracts/Twitter.sol\":395:435  bytes(_tweet).length <= MAX_TWEET_LENGTH */\n      0xffff\n      and\n        /* \"contracts/Twitter.sol\":401:407  _tweet */\n      dup2\n        /* \"contracts/Twitter.sol\":395:415  bytes(_tweet).length */\n      mload\n        /* \"contracts/Twitter.sol\":395:435  bytes(_tweet).length <= MAX_TWEET_LENGTH */\n      gt\n      iszero\n        /* \"contracts/Twitter.sol\":387:459  require(bytes(_tweet).length <= MAX_TWEET_LENGTH, \"Tweet is too long!!\") */\n      tag_45\n      jumpi\n      mload(0x40)\n      0x08c379a000000000000000000000000000000000000000000000000000000000\n      dup2\n      mstore\n      0x04\n      add\n      tag_46\n      swap1\n      tag_47\n      jump\t// in\n    tag_46:\n      mload(0x40)\n      dup1\n      swap2\n      sub\n      swap1\n      revert\n    tag_45:\n        /* \"contracts/Twitter.sol\":481:502  Tweet memory newTweet */\n      0x00\n        /* \"contracts/Twitter.sol\":506:651  Tweet({... */\n      mload(0x40)\n      dup1\n      0x80\n      add\n      0x40\n      mstore\n      dup1\n        /* \"contracts/Twitter.sol\":535:545  msg.sender */\n      caller\n        /* \"contracts/Twitter.sol\":506:651  Tweet({... */\n      0xffffffffffffffffffffffffffffffffffffffff\n      and\n      dup2\n      mstore\n      0x20\n      add\n        /* \"contracts/Twitter.sol\":569:575  _tweet */\n      dup4\n        /* \"contracts/Twitter.sol\":506:651  Tweet({... */\n      dup2\n      mstore\n      0x20\n      add\n        /* \"contracts/Twitter.sol\":601:616  block.timestamp */\n      timestamp\n        /* \"contracts/Twitter.sol\":506:651  Tweet({... */\n      dup2\n      mstore\n      0x20\n      add\n        /* \"contracts/Twitter.sol\":638:639  0 */\n      0x00\n        /* \"contracts/Twitter.sol\":506:651  Tweet({... */\n      dup2\n      mstore\n      pop\n        /* \"contracts/Twitter.sol\":481:651  Tweet memory newTweet =  Tweet({... */\n      swap1\n      pop\n        /* \"contracts/Twitter.sol\":662:668  tweets */\n      0x00\n        /* \"contracts/Twitter.sol\":662:680  tweets[msg.sender] */\n      dup1\n        /* \"contracts/Twitter.sol\":669:679  msg.sender */\n      caller\n        /* \"contracts/Twitter.sol\":662:680  tweets[msg.sender] */\n      0xffffffffffffffffffffffffffffffffffffffff\n      and\n      0xffffffffffffffffffffffffffffffffffffffff\n      and\n      dup2\n      mstore\n      0x20\n      add\n      swap1\n      dup2\n      mstore\n      0x20\n      add\n      0x00\n      keccak256\n        /* \"contracts/Twitter.sol\":686:694  newTweet */\n      dup2\n        /* \"contracts/Twitter.sol\":662:695  tweets[msg.sender].push(newTweet) */\n      swap1\n      dup1\n      0x01\n      dup2\n      sload\n      add\n      dup1\n      dup3\n      sstore\n      dup1\n      swap2\n      pop\n      pop\n      0x01\n      swap1\n      sub\n      swap1\n      0x00\n      mstore\n      keccak256(0x00, 0x20)\n      swap1\n      0x04\n      mul\n      add\n      0x00\n      swap1\n      swap2\n      swap1\n      swap2\n      swap1\n      swap2\n      pop\n      0x00\n      dup3\n      add\n      mload\n      dup2\n      0x00\n      add\n      exp(0x0100, 0x00)\n      dup2\n      sload\n      dup2\n      0xffffffffffffffffffffffffffffffffffffffff\n      mul\n      not\n      and\n      swap1\n      dup4\n      0xffffffffffffffffffffffffffffffffffffffff\n      and\n      mul\n      or\n      swap1\n      sstore\n      pop\n      0x20\n      dup3\n      add\n      mload\n      dup2\n      0x01\n      add\n      swap1\n      dup2\n      tag_49\n      swap2\n      swap1\n      tag_50\n      jump\t// in\n    tag_49:\n      pop\n      0x40\n      dup3\n      add\n      mload\n      dup2\n      0x02\n      add\n      sstore\n      0x60\n      dup3\n      add\n      mload\n      dup2\n      0x03\n      add\n      sstore\n      pop\n      pop\n        /* \"contracts/Twitter.sol\":366:703  {... */\n      pop\n        /* \"contracts/Twitter.sol\":316:703  function createTweet(string memory _tweet) public {... */\n      pop\n      jump\t// out\n    tag_23:\n      mload(0x40)\n      dup1\n      0x80\n      add\n      0x40\n      mstore\n      dup1\n      and(0xffffffffffffffffffffffffffffffffffffffff, 0x00)\n      dup2\n      mstore\n      0x20\n      add\n      0x60\n      dup2\n      mstore\n      0x20\n      add\n      0x00\n      dup2\n      mstore\n      0x20\n      add\n      0x00\n      dup2\n      mstore\n      pop\n      swap1\n      jump\t// out\n        /* \"#utility.yul\":7:82   */\n    tag_51:\n        /* \"#utility.yul\":40:46   */\n      0x00\n        /* \"#utility.yul\":73:75   */\n      0x40\n        /* \"#utility.yul\":67:76   */\n      mload\n        /* \"#utility.yul\":57:76   */\n      swap1\n      pop\n        /* \"#utility.yul\":7:82   */\n      swap1\n      jump\t// out\n        /* \"#utility.yul\":88:205   */\n    tag_52:\n        /* \"#utility.yul\":197:198   */\n      0x00\n        /* \"#utility.yul\":194:195   */\n      dup1\n        /* \"#utility.yul\":187:199   */\n      revert\n        /* \"#utility.yul\":211:328   */\n    tag_53:\n        /* \"#utility.yul\":320:321   */\n      0x00\n        /* \"#utility.yul\":317:318   */\n      dup1\n        /* \"#utility.yul\":310:322   */\n      revert\n        /* \"#utility.yul\":334:460   */\n    tag_54:\n        /* \"#utility.yul\":371:378   */\n      0x00\n        /* \"#utility.yul\":411:453   */\n      0xffffffffffffffffffffffffffffffffffffffff\n        /* \"#utility.yul\":404:409   */\n      dup3\n        /* \"#utility.yul\":400:454   */\n      and\n        /* \"#utility.yul\":389:454   */\n      swap1\n      pop\n        /* \"#utility.yul\":334:460   */\n      swap2\n      swap1\n      pop\n      jump\t// out\n        /* \"#utility.yul\":466:562   */\n    tag_55:\n        /* \"#utility.yul\":503:510   */\n      0x00\n        /* \"#utility.yul\":532:556   */\n      tag_110\n        /* \"#utility.yul\":550:555   */\n      dup3\n        /* \"#utility.yul\":532:556   */\n      tag_54\n      jump\t// in\n    tag_110:\n        /* \"#utility.yul\":521:556   */\n      swap1\n      pop\n        /* \"#utility.yul\":466:562   */\n      swap2\n      swap1\n      pop\n      jump\t// out\n        /* \"#utility.yul\":568:690   */\n    tag_56:\n        /* \"#utility.yul\":641:665   */\n      tag_112\n        /* \"#utility.yul\":659:664   */\n      dup2\n        /* \"#utility.yul\":641:665   */\n      tag_55\n      jump\t// in\n    tag_112:\n        /* \"#utility.yul\":634:639   */\n      dup2\n        /* \"#utility.yul\":631:666   */\n      eq\n        /* \"#utility.yul\":621:684   */\n      tag_113\n      jumpi\n        /* \"#utility.yul\":680:681   */\n      0x00\n        /* \"#utility.yul\":677:678   */\n      dup1\n        /* \"#utility.yul\":670:682   */\n      revert\n        /* \"#utility.yul\":621:684   */\n    tag_113:\n        /* \"#utility.yul\":568:690   */\n      pop\n      jump\t// out\n        /* \"#utility.yul\":696:835   */\n    tag_57:\n        /* \"#utility.yul\":742:747   */\n      0x00\n        /* \"#utility.yul\":780:786   */\n      dup2\n        /* \"#utility.yul\":767:787   */\n      calldataload\n        /* \"#utility.yul\":758:787   */\n      swap1\n      pop\n        /* \"#utility.yul\":796:829   */\n      tag_115\n        /* \"#utility.yul\":823:828   */\n      dup2\n        /* \"#utility.yul\":796:829   */\n      tag_56\n      jump\t// in\n    tag_115:\n        /* \"#utility.yul\":696:835   */\n      swap3\n      swap2\n      pop\n      pop\n      jump\t// out\n        /* \"#utility.yul\":841:918   */\n    tag_58:\n        /* \"#utility.yul\":878:885   */\n      0x00\n        /* \"#utility.yul\":907:912   */\n      dup2\n        /* \"#utility.yul\":896:912   */\n      swap1\n      pop\n        /* \"#utility.yul\":841:918   */\n      swap2\n      swap1\n      pop\n      jump\t// out\n        /* \"#utility.yul\":924:1046   */\n    tag_59:\n        /* \"#utility.yul\":997:1021   */\n      tag_118\n        /* \"#utility.yul\":1015:1020   */\n      dup2\n        /* \"#utility.yul\":997:1021   */\n      tag_58\n      jump\t// in\n    tag_118:\n        /* \"#utility.yul\":990:995   */\n      dup2\n        /* \"#utility.yul\":987:1022   */\n      eq\n        /* \"#utility.yul\":977:1040   */\n      tag_119\n      jumpi\n        /* \"#utility.yul\":1036:1037   */\n      0x00\n        /* \"#utility.yul\":1033:1034   */\n      dup1\n        /* \"#utility.yul\":1026:1038   */\n      revert\n        /* \"#utility.yul\":977:1040   */\n    tag_119:\n        /* \"#utility.yul\":924:1046   */\n      pop\n      jump\t// out\n        /* \"#utility.yul\":1052:1191   */\n    tag_60:\n        /* \"#utility.yul\":1098:1103   */\n      0x00\n        /* \"#utility.yul\":1136:1142   */\n      dup2\n        /* \"#utility.yul\":1123:1143   */\n      calldataload\n        /* \"#utility.yul\":1114:1143   */\n      swap1\n      pop\n        /* \"#utility.yul\":1152:1185   */\n      tag_121\n        /* \"#utility.yul\":1179:1184   */\n      dup2\n        /* \"#utility.yul\":1152:1185   */\n      tag_59\n      jump\t// in\n    tag_121:\n        /* \"#utility.yul\":1052:1191   */\n      swap3\n      swap2\n      pop\n      pop\n      jump\t// out\n        /* \"#utility.yul\":1197:1671   */\n    tag_8:\n        /* \"#utility.yul\":1265:1271   */\n      0x00\n        /* \"#utility.yul\":1273:1279   */\n      dup1\n        /* \"#utility.yul\":1322:1324   */\n      0x40\n        /* \"#utility.yul\":1310:1319   */\n      dup4\n        /* \"#utility.yul\":1301:1308   */\n      dup6\n        /* \"#utility.yul\":1297:1320   */\n      sub\n        /* \"#utility.yul\":1293:1325   */\n      slt\n        /* \"#utility.yul\":1290:1409   */\n      iszero\n      tag_123\n      jumpi\n        /* \"#utility.yul\":1328:1407   */\n      tag_124\n      tag_52\n      jump\t// in\n    tag_124:\n        /* \"#utility.yul\":1290:1409   */\n    tag_123:\n        /* \"#utility.yul\":1448:1449   */\n      0x00\n        /* \"#utility.yul\":1473:1526   */\n      tag_125\n        /* \"#utility.yul\":1518:1525   */\n      dup6\n        /* \"#utility.yul\":1509:1515   */\n      dup3\n        /* \"#utility.yul\":1498:1507   */\n      dup7\n        /* \"#utility.yul\":1494:1516   */\n      add\n        /* \"#utility.yul\":1473:1526   */\n      tag_57\n      jump\t// in\n    tag_125:\n        /* \"#utility.yul\":1463:1526   */\n      swap3\n      pop\n        /* \"#utility.yul\":1419:1536   */\n      pop\n        /* \"#utility.yul\":1575:1577   */\n      0x20\n        /* \"#utility.yul\":1601:1654   */\n      tag_126\n        /* \"#utility.yul\":1646:1653   */\n      dup6\n        /* \"#utility.yul\":1637:1643   */\n      dup3\n        /* \"#utility.yul\":1626:1635   */\n      dup7\n        /* \"#utility.yul\":1622:1644   */\n      add\n        /* \"#utility.yul\":1601:1654   */\n      tag_60\n      jump\t// in\n    tag_126:\n        /* \"#utility.yul\":1591:1654   */\n      swap2\n      pop\n        /* \"#utility.yul\":1546:1664   */\n      pop\n        /* \"#utility.yul\":1197:1671   */\n      swap3\n      pop\n      swap3\n      swap1\n      pop\n      jump\t// out\n        /* \"#utility.yul\":1677:1785   */\n    tag_61:\n        /* \"#utility.yul\":1754:1778   */\n      tag_128\n        /* \"#utility.yul\":1772:1777   */\n      dup2\n        /* \"#utility.yul\":1754:1778   */\n      tag_55\n      jump\t// in\n    tag_128:\n        /* \"#utility.yul\":1749:1752   */\n      dup3\n        /* \"#utility.yul\":1742:1779   */\n      mstore\n        /* \"#utility.yul\":1677:1785   */\n      pop\n      pop\n      jump\t// out\n        /* \"#utility.yul\":1791:1890   */\n    tag_62:\n        /* \"#utility.yul\":1843:1849   */\n      0x00\n        /* \"#utility.yul\":1877:1882   */\n      dup2\n        /* \"#utility.yul\":1871:1883   */\n      mload\n        /* \"#utility.yul\":1861:1883   */\n      swap1\n      pop\n        /* \"#utility.yul\":1791:1890   */\n      swap2\n      swap1\n      pop\n      jump\t// out\n        /* \"#utility.yul\":1896:2055   */\n    tag_63:\n        /* \"#utility.yul\":1970:1981   */\n      0x00\n        /* \"#utility.yul\":2004:2010   */\n      dup3\n        /* \"#utility.yul\":1999:2002   */\n      dup3\n        /* \"#utility.yul\":1992:2011   */\n      mstore\n        /* \"#utility.yul\":2044:2048   */\n      0x20\n        /* \"#utility.yul\":2039:2042   */\n      dup3\n        /* \"#utility.yul\":2035:2049   */\n      add\n        /* \"#utility.yul\":2020:2049   */\n      swap1\n      pop\n        /* \"#utility.yul\":1896:2055   */\n      swap3\n      swap2\n      pop\n      pop\n      jump\t// out\n        /* \"#utility.yul\":2061:2200   */\n    tag_64:\n        /* \"#utility.yul\":2150:2156   */\n      dup3\n        /* \"#utility.yul\":2145:2148   */\n      dup2\n        /* \"#utility.yul\":2140:2143   */\n      dup4\n        /* \"#utility.yul\":2134:2157   */\n      mcopy\n        /* \"#utility.yul\":2191:2192   */\n      0x00\n        /* \"#utility.yul\":2182:2188   */\n      dup4\n        /* \"#utility.yul\":2177:2180   */\n      dup4\n        /* \"#utility.yul\":2173:2189   */\n      add\n        /* \"#utility.yul\":2166:2193   */\n      mstore\n        /* \"#utility.yul\":2061:2200   */\n      pop\n      pop\n      pop\n      jump\t// out\n        /* \"#utility.yul\":2206:2308   */\n    tag_65:\n        /* \"#utility.yul\":2247:2253   */\n      0x00\n        /* \"#utility.yul\":2298:2300   */\n      0x1f\n        /* \"#utility.yul\":2294:2301   */\n      not\n        /* \"#utility.yul\":2289:2291   */\n      0x1f\n        /* \"#utility.yul\":2282:2287   */\n      dup4\n        /* \"#utility.yul\":2278:2292   */\n      add\n        /* \"#utility.yul\":2274:2302   */\n      and\n        /* \"#utility.yul\":2264:2302   */\n      swap1\n      pop\n        /* \"#utility.yul\":2206:2308   */\n      swap2\n      swap1\n      pop\n      jump\t// out\n        /* \"#utility.yul\":2314:2671   */\n    tag_66:\n        /* \"#utility.yul\":2392:2395   */\n      0x00\n        /* \"#utility.yul\":2420:2459   */\n      tag_134\n        /* \"#utility.yul\":2453:2458   */\n      dup3\n        /* \"#utility.yul\":2420:2459   */\n      tag_62\n      jump\t// in\n    tag_134:\n        /* \"#utility.yul\":2475:2536   */\n      tag_135\n        /* \"#utility.yul\":2529:2535   */\n      dup2\n        /* \"#utility.yul\":2524:2527   */\n      dup6\n        /* \"#utility.yul\":2475:2536   */\n      tag_63\n      jump\t// in\n    tag_135:\n        /* \"#utility.yul\":2468:2536   */\n      swap4\n      pop\n        /* \"#utility.yul\":2545:2610   */\n      tag_136\n        /* \"#utility.yul\":2603:2609   */\n      dup2\n        /* \"#utility.yul\":2598:2601   */\n      dup6\n        /* \"#utility.yul\":2591:2595   */\n      0x20\n        /* \"#utility.yul\":2584:2589   */\n      dup7\n        /* \"#utility.yul\":2580:2596   */\n      add\n        /* \"#utility.yul\":2545:2610   */\n      tag_64\n      jump\t// in\n    tag_136:\n        /* \"#utility.yul\":2635:2664   */\n      tag_137\n        /* \"#utility.yul\":2657:2663   */\n      dup2\n        /* \"#utility.yul\":2635:2664   */\n      tag_65\n      jump\t// in\n    tag_137:\n        /* \"#utility.yul\":2630:2633   */\n      dup5\n        /* \"#utility.yul\":2626:2665   */\n      add\n        /* \"#utility.yul\":2619:2665   */\n      swap2\n      pop\n        /* \"#utility.yul\":2396:2671   */\n      pop\n        /* \"#utility.yul\":2314:2671   */\n      swap3\n      swap2\n      pop\n      pop\n      jump\t// out\n        /* \"#utility.yul\":2677:2785   */\n    tag_67:\n        /* \"#utility.yul\":2754:2778   */\n      tag_139\n        /* \"#utility.yul\":2772:2777   */\n      dup2\n        /* \"#utility.yul\":2754:2778   */\n      tag_58\n      jump\t// in\n    tag_139:\n        /* \"#utility.yul\":2749:2752   */\n      dup3\n        /* \"#utility.yul\":2742:2779   */\n      mstore\n        /* \"#utility.yul\":2677:2785   */\n      pop\n      pop\n      jump\t// out\n        /* \"#utility.yul\":2843:3800   */\n    tag_68:\n        /* \"#utility.yul\":2954:2957   */\n      0x00\n        /* \"#utility.yul\":2990:2994   */\n      0x80\n        /* \"#utility.yul\":2985:2988   */\n      dup4\n        /* \"#utility.yul\":2981:2995   */\n      add\n        /* \"#utility.yul\":3079:3083   */\n      0x00\n        /* \"#utility.yul\":3072:3077   */\n      dup4\n        /* \"#utility.yul\":3068:3084   */\n      add\n        /* \"#utility.yul\":3062:3085   */\n      mload\n        /* \"#utility.yul\":3098:3161   */\n      tag_141\n        /* \"#utility.yul\":3155:3159   */\n      0x00\n        /* \"#utility.yul\":3150:3153   */\n      dup7\n        /* \"#utility.yul\":3146:3160   */\n      add\n        /* \"#utility.yul\":3132:3144   */\n      dup3\n        /* \"#utility.yul\":3098:3161   */\n      tag_61\n      jump\t// in\n    tag_141:\n        /* \"#utility.yul\":3005:3171   */\n      pop\n        /* \"#utility.yul\":3256:3260   */\n      0x20\n        /* \"#utility.yul\":3249:3254   */\n      dup4\n        /* \"#utility.yul\":3245:3261   */\n      add\n        /* \"#utility.yul\":3239:3262   */\n      mload\n        /* \"#utility.yul\":3309:3312   */\n      dup5\n        /* \"#utility.yul\":3303:3307   */\n      dup3\n        /* \"#utility.yul\":3299:3313   */\n      sub\n        /* \"#utility.yul\":3292:3296   */\n      0x20\n        /* \"#utility.yul\":3287:3290   */\n      dup7\n        /* \"#utility.yul\":3283:3297   */\n      add\n        /* \"#utility.yul\":3276:3314   */\n      mstore\n        /* \"#utility.yul\":3335:3408   */\n      tag_142\n        /* \"#utility.yul\":3403:3407   */\n      dup3\n        /* \"#utility.yul\":3389:3401   */\n      dup3\n        /* \"#utility.yul\":3335:3408   */\n      tag_66\n      jump\t// in\n    tag_142:\n        /* \"#utility.yul\":3327:3408   */\n      swap2\n      pop\n        /* \"#utility.yul\":3181:3419   */\n      pop\n        /* \"#utility.yul\":3506:3510   */\n      0x40\n        /* \"#utility.yul\":3499:3504   */\n      dup4\n        /* \"#utility.yul\":3495:3511   */\n      add\n        /* \"#utility.yul\":3489:3512   */\n      mload\n        /* \"#utility.yul\":3525:3588   */\n      tag_143\n        /* \"#utility.yul\":3582:3586   */\n      0x40\n        /* \"#utility.yul\":3577:3580   */\n      dup7\n        /* \"#utility.yul\":3573:3587   */\n      add\n        /* \"#utility.yul\":3559:3571   */\n      dup3\n        /* \"#utility.yul\":3525:3588   */\n      tag_67\n      jump\t// in\n    tag_143:\n        /* \"#utility.yul\":3429:3598   */\n      pop\n        /* \"#utility.yul\":3681:3685   */\n      0x60\n        /* \"#utility.yul\":3674:3679   */\n      dup4\n        /* \"#utility.yul\":3670:3686   */\n      add\n        /* \"#utility.yul\":3664:3687   */\n      mload\n        /* \"#utility.yul\":3700:3763   */\n      tag_144\n        /* \"#utility.yul\":3757:3761   */\n      0x60\n        /* \"#utility.yul\":3752:3755   */\n      dup7\n        /* \"#utility.yul\":3748:3762   */\n      add\n        /* \"#utility.yul\":3734:3746   */\n      dup3\n        /* \"#utility.yul\":3700:3763   */\n      tag_67\n      jump\t// in\n    tag_144:\n        /* \"#utility.yul\":3608:3773   */\n      pop\n        /* \"#utility.yul\":3790:3794   */\n      dup1\n        /* \"#utility.yul\":3783:3794   */\n      swap2\n      pop\n        /* \"#utility.yul\":2959:3800   */\n      pop\n        /* \"#utility.yul\":2843:3800   */\n      swap3\n      swap2\n      pop\n      pop\n      jump\t// out\n        /* \"#utility.yul\":3806:4163   */\n    tag_11:\n        /* \"#utility.yul\":3941:3945   */\n      0x00\n        /* \"#utility.yul\":3979:3981   */\n      0x20\n        /* \"#utility.yul\":3968:3977   */\n      dup3\n        /* \"#utility.yul\":3964:3982   */\n      add\n        /* \"#utility.yul\":3956:3982   */\n      swap1\n      pop\n        /* \"#utility.yul\":4028:4037   */\n      dup2\n        /* \"#utility.yul\":4022:4026   */\n      dup2\n        /* \"#utility.yul\":4018:4038   */\n      sub\n        /* \"#utility.yul\":4014:4015   */\n      0x00\n        /* \"#utility.yul\":4003:4012   */\n      dup4\n        /* \"#utility.yul\":3999:4016   */\n      add\n        /* \"#utility.yul\":3992:4039   */\n      mstore\n        /* \"#utility.yul\":4056:4156   */\n      tag_146\n        /* \"#utility.yul\":4151:4155   */\n      dup2\n        /* \"#utility.yul\":4142:4148   */\n      dup5\n        /* \"#utility.yul\":4056:4156   */\n      tag_68\n      jump\t// in\n    tag_146:\n        /* \"#utility.yul\":4048:4156   */\n      swap1\n      pop\n        /* \"#utility.yul\":3806:4163   */\n      swap3\n      swap2\n      pop\n      pop\n      jump\t// out\n        /* \"#utility.yul\":4169:4498   */\n    tag_14:\n        /* \"#utility.yul\":4228:4234   */\n      0x00\n        /* \"#utility.yul\":4277:4279   */\n      0x20\n        /* \"#utility.yul\":4265:4274   */\n      dup3\n        /* \"#utility.yul\":4256:4263   */\n      dup5\n        /* \"#utility.yul\":4252:4275   */\n      sub\n        /* \"#utility.yul\":4248:4280   */\n      slt\n        /* \"#utility.yul\":4245:4364   */\n      iszero\n      tag_148\n      jumpi\n        /* \"#utility.yul\":4283:4362   */\n      tag_149\n      tag_52\n      jump\t// in\n    tag_149:\n        /* \"#utility.yul\":4245:4364   */\n    tag_148:\n        /* \"#utility.yul\":4403:4404   */\n      0x00\n        /* \"#utility.yul\":4428:4481   */\n      tag_150\n        /* \"#utility.yul\":4473:4480   */\n      dup5\n        /* \"#utility.yul\":4464:4470   */\n      dup3\n        /* \"#utility.yul\":4453:4462   */\n      dup6\n        /* \"#utility.yul\":4449:4471   */\n      add\n        /* \"#utility.yul\":4428:4481   */\n      tag_57\n      jump\t// in\n    tag_150:\n        /* \"#utility.yul\":4418:4481   */\n      swap2\n      pop\n        /* \"#utility.yul\":4374:4491   */\n      pop\n        /* \"#utility.yul\":4169:4498   */\n      swap3\n      swap2\n      pop\n      pop\n      jump\t// out\n        /* \"#utility.yul\":4504:4639   */\n    tag_69:\n        /* \"#utility.yul\":4592:4598   */\n      0x00\n        /* \"#utility.yul\":4626:4631   */\n      dup2\n        /* \"#utility.yul\":4620:4632   */\n      mload\n        /* \"#utility.yul\":4610:4632   */\n      swap1\n      pop\n        /* \"#utility.yul\":4504:4639   */\n      swap2\n      swap1\n      pop\n      jump\t// out\n        /* \"#utility.yul\":4645:4850   */\n    tag_70:\n        /* \"#utility.yul\":4765:4776   */\n      0x00\n        /* \"#utility.yul\":4799:4805   */\n      dup3\n        /* \"#utility.yul\":4794:4797   */\n      dup3\n        /* \"#utility.yul\":4787:4806   */\n      mstore\n        /* \"#utility.yul\":4839:4843   */\n      0x20\n        /* \"#utility.yul\":4834:4837   */\n      dup3\n        /* \"#utility.yul\":4830:4844   */\n      add\n        /* \"#utility.yul\":4815:4844   */\n      swap1\n      pop\n        /* \"#utility.yul\":4645:4850   */\n      swap3\n      swap2\n      pop\n      pop\n      jump\t// out\n        /* \"#utility.yul\":4856:5009   */\n    tag_71:\n        /* \"#utility.yul\":4944:4948   */\n      0x00\n        /* \"#utility.yul\":4967:4970   */\n      dup2\n        /* \"#utility.yul\":4959:4970   */\n      swap1\n      pop\n        /* \"#utility.yul\":4997:5001   */\n      0x20\n        /* \"#utility.yul\":4992:4995   */\n      dup3\n        /* \"#utility.yul\":4988:5002   */\n      add\n        /* \"#utility.yul\":4980:5002   */\n      swap1\n      pop\n        /* \"#utility.yul\":4856:5009   */\n      swap2\n      swap1\n      pop\n      jump\t// out\n        /* \"#utility.yul\":5067:6014   */\n    tag_72:\n        /* \"#utility.yul\":5168:5171   */\n      0x00\n        /* \"#utility.yul\":5204:5208   */\n      0x80\n        /* \"#utility.yul\":5199:5202   */\n      dup4\n        /* \"#utility.yul\":5195:5209   */\n      add\n        /* \"#utility.yul\":5293:5297   */\n      0x00\n        /* \"#utility.yul\":5286:5291   */\n      dup4\n        /* \"#utility.yul\":5282:5298   */\n      add\n        /* \"#utility.yul\":5276:5299   */\n      mload\n        /* \"#utility.yul\":5312:5375   */\n      tag_155\n        /* \"#utility.yul\":5369:5373   */\n      0x00\n        /* \"#utility.yul\":5364:5367   */\n      dup7\n        /* \"#utility.yul\":5360:5374   */\n      add\n        /* \"#utility.yul\":5346:5358   */\n      dup3\n        /* \"#utility.yul\":5312:5375   */\n      tag_61\n      jump\t// in\n    tag_155:\n        /* \"#utility.yul\":5219:5385   */\n      pop\n        /* \"#utility.yul\":5470:5474   */\n      0x20\n        /* \"#utility.yul\":5463:5468   */\n      dup4\n        /* \"#utility.yul\":5459:5475   */\n      add\n        /* \"#utility.yul\":5453:5476   */\n      mload\n        /* \"#utility.yul\":5523:5526   */\n      dup5\n        /* \"#utility.yul\":5517:5521   */\n      dup3\n        /* \"#utility.yul\":5513:5527   */\n      sub\n        /* \"#utility.yul\":5506:5510   */\n      0x20\n        /* \"#utility.yul\":5501:5504   */\n      dup7\n        /* \"#utility.yul\":5497:5511   */\n      add\n        /* \"#utility.yul\":5490:5528   */\n      mstore\n        /* \"#utility.yul\":5549:5622   */\n      tag_156\n        /* \"#utility.yul\":5617:5621   */\n      dup3\n        /* \"#utility.yul\":5603:5615   */\n      dup3\n        /* \"#utility.yul\":5549:5622   */\n      tag_66\n      jump\t// in\n    tag_156:\n        /* \"#utility.yul\":5541:5622   */\n      swap2\n      pop\n        /* \"#utility.yul\":5395:5633   */\n      pop\n        /* \"#utility.yul\":5720:5724   */\n      0x40\n        /* \"#utility.yul\":5713:5718   */\n      dup4\n        /* \"#utility.yul\":5709:5725   */\n      add\n        /* \"#utility.yul\":5703:5726   */\n      mload\n        /* \"#utility.yul\":5739:5802   */\n      tag_157\n        /* \"#utility.yul\":5796:5800   */\n      0x40\n        /* \"#utility.yul\":5791:5794   */\n      dup7\n        /* \"#utility.yul\":5787:5801   */\n      add\n        /* \"#utility.yul\":5773:5785   */\n      dup3\n        /* \"#utility.yul\":5739:5802   */\n      tag_67\n      jump\t// in\n    tag_157:\n        /* \"#utility.yul\":5643:5812   */\n      pop\n        /* \"#utility.yul\":5895:5899   */\n      0x60\n        /* \"#utility.yul\":5888:5893   */\n      dup4\n        /* \"#utility.yul\":5884:5900   */\n      add\n        /* \"#utility.yul\":5878:5901   */\n      mload\n        /* \"#utility.yul\":5914:5977   */\n      tag_158\n        /* \"#utility.yul\":5971:5975   */\n      0x60\n        /* \"#utility.yul\":5966:5969   */\n      dup7\n        /* \"#utility.yul\":5962:5976   */\n      add\n        /* \"#utility.yul\":5948:5960   */\n      dup3\n        /* \"#utility.yul\":5914:5977   */\n      tag_67\n      jump\t// in\n    tag_158:\n        /* \"#utility.yul\":5822:5987   */\n      pop\n        /* \"#utility.yul\":6004:6008   */\n      dup1\n        /* \"#utility.yul\":5997:6008   */\n      swap2\n      pop\n        /* \"#utility.yul\":5173:6014   */\n      pop\n        /* \"#utility.yul\":5067:6014   */\n      swap3\n      swap2\n      pop\n      pop\n      jump\t// out\n        /* \"#utility.yul\":6020:6260   */\n    tag_73:\n        /* \"#utility.yul\":6131:6141   */\n      0x00\n        /* \"#utility.yul\":6166:6254   */\n      tag_160\n        /* \"#utility.yul\":6250:6253   */\n      dup4\n        /* \"#utility.yul\":6242:6248   */\n      dup4\n        /* \"#utility.yul\":6166:6254   */\n      tag_72\n      jump\t// in\n    tag_160:\n        /* \"#utility.yul\":6152:6254   */\n      swap1\n      pop\n        /* \"#utility.yul\":6020:6260   */\n      swap3\n      swap2\n      pop\n      pop\n      jump\t// out\n        /* \"#utility.yul\":6266:6400   */\n    tag_74:\n        /* \"#utility.yul\":6357:6361   */\n      0x00\n        /* \"#utility.yul\":6389:6393   */\n      0x20\n        /* \"#utility.yul\":6384:6387   */\n      dup3\n        /* \"#utility.yul\":6380:6394   */\n      add\n        /* \"#utility.yul\":6372:6394   */\n      swap1\n      pop\n        /* \"#utility.yul\":6266:6400   */\n      swap2\n      swap1\n      pop\n      jump\t// out\n        /* \"#utility.yul\":6462:7541   */\n    tag_75:\n        /* \"#utility.yul\":6623:6626   */\n      0x00\n        /* \"#utility.yul\":6652:6727   */\n      tag_163\n        /* \"#utility.yul\":6721:6726   */\n      dup3\n        /* \"#utility.yul\":6652:6727   */\n      tag_69\n      jump\t// in\n    tag_163:\n        /* \"#utility.yul\":6743:6850   */\n      tag_164\n        /* \"#utility.yul\":6843:6849   */\n      dup2\n        /* \"#utility.yul\":6838:6841   */\n      dup6\n        /* \"#utility.yul\":6743:6850   */\n      tag_70\n      jump\t// in\n    tag_164:\n        /* \"#utility.yul\":6736:6850   */\n      swap4\n      pop\n        /* \"#utility.yul\":6876:6879   */\n      dup4\n        /* \"#utility.yul\":6921:6925   */\n      0x20\n        /* \"#utility.yul\":6913:6919   */\n      dup3\n        /* \"#utility.yul\":6909:6926   */\n      mul\n        /* \"#utility.yul\":6904:6907   */\n      dup6\n        /* \"#utility.yul\":6900:6927   */\n      add\n        /* \"#utility.yul\":6951:7028   */\n      tag_165\n        /* \"#utility.yul\":7022:7027   */\n      dup6\n        /* \"#utility.yul\":6951:7028   */\n      tag_71\n      jump\t// in\n    tag_165:\n        /* \"#utility.yul\":7051:7058   */\n      dup1\n        /* \"#utility.yul\":7082:7083   */\n      0x00\n        /* \"#utility.yul\":7067:7496   */\n    tag_166:\n        /* \"#utility.yul\":7092:7098   */\n      dup6\n        /* \"#utility.yul\":7089:7090   */\n      dup2\n        /* \"#utility.yul\":7086:7099   */\n      lt\n        /* \"#utility.yul\":7067:7496   */\n      iszero\n      tag_168\n      jumpi\n        /* \"#utility.yul\":7163:7172   */\n      dup5\n        /* \"#utility.yul\":7157:7161   */\n      dup5\n        /* \"#utility.yul\":7153:7173   */\n      sub\n        /* \"#utility.yul\":7148:7151   */\n      dup10\n        /* \"#utility.yul\":7141:7174   */\n      mstore\n        /* \"#utility.yul\":7214:7220   */\n      dup2\n        /* \"#utility.yul\":7208:7221   */\n      mload\n        /* \"#utility.yul\":7242:7348   */\n      tag_169\n        /* \"#utility.yul\":7343:7347   */\n      dup6\n        /* \"#utility.yul\":7328:7341   */\n      dup3\n        /* \"#utility.yul\":7242:7348   */\n      tag_73\n      jump\t// in\n    tag_169:\n        /* \"#utility.yul\":7234:7348   */\n      swap5\n      pop\n        /* \"#utility.yul\":7371:7452   */\n      tag_170\n        /* \"#utility.yul\":7445:7451   */\n      dup4\n        /* \"#utility.yul\":7371:7452   */\n      tag_74\n      jump\t// in\n    tag_170:\n        /* \"#utility.yul\":7361:7452   */\n      swap3\n      pop\n        /* \"#utility.yul\":7481:7485   */\n      0x20\n        /* \"#utility.yul\":7476:7479   */\n      dup11\n        /* \"#utility.yul\":7472:7486   */\n      add\n        /* \"#utility.yul\":7465:7486   */\n      swap10\n      pop\n        /* \"#utility.yul\":7127:7496   */\n      pop\n        /* \"#utility.yul\":7114:7115   */\n      0x01\n        /* \"#utility.yul\":7111:7112   */\n      dup2\n        /* \"#utility.yul\":7107:7116   */\n      add\n        /* \"#utility.yul\":7102:7116   */\n      swap1\n      pop\n        /* \"#utility.yul\":7067:7496   */\n      jump(tag_166)\n    tag_168:\n        /* \"#utility.yul\":7071:7085   */\n      pop\n        /* \"#utility.yul\":7512:7516   */\n      dup3\n        /* \"#utility.yul\":7505:7516   */\n      swap8\n      pop\n        /* \"#utility.yul\":7532:7535   */\n      dup8\n        /* \"#utility.yul\":7525:7535   */\n      swap6\n      pop\n        /* \"#utility.yul\":6628:7541   */\n      pop\n      pop\n      pop\n      pop\n      pop\n        /* \"#utility.yul\":6462:7541   */\n      swap3\n      swap2\n      pop\n      pop\n      jump\t// out\n        /* \"#utility.yul\":7547:8004   */\n    tag_17:\n        /* \"#utility.yul\":7732:7736   */\n      0x00\n        /* \"#utility.yul\":7770:7772   */\n      0x20\n        /* \"#utility.yul\":7759:7768   */\n      dup3\n        /* \"#utility.yul\":7755:7773   */\n      add\n        /* \"#utility.yul\":7747:7773   */\n      swap1\n      pop\n        /* \"#utility.yul\":7819:7828   */\n      dup2\n        /* \"#utility.yul\":7813:7817   */\n      dup2\n        /* \"#utility.yul\":7809:7829   */\n      sub\n        /* \"#utility.yul\":7805:7806   */\n      0x00\n        /* \"#utility.yul\":7794:7803   */\n      dup4\n        /* \"#utility.yul\":7790:7807   */\n      add\n        /* \"#utility.yul\":7783:7830   */\n      mstore\n        /* \"#utility.yul\":7847:7997   */\n      tag_172\n        /* \"#utility.yul\":7992:7996   */\n      dup2\n        /* \"#utility.yul\":7983:7989   */\n      dup5\n        /* \"#utility.yul\":7847:7997   */\n      tag_75\n      jump\t// in\n    tag_172:\n        /* \"#utility.yul\":7839:7997   */\n      swap1\n      pop\n        /* \"#utility.yul\":7547:8004   */\n      swap3\n      swap2\n      pop\n      pop\n      jump\t// out\n        /* \"#utility.yul\":8010:8127   */\n    tag_76:\n        /* \"#utility.yul\":8119:8120   */\n      0x00\n        /* \"#utility.yul\":8116:8117   */\n      dup1\n        /* \"#utility.yul\":8109:8121   */\n      revert\n        /* \"#utility.yul\":8133:8250   */\n    tag_77:\n        /* \"#utility.yul\":8242:8243   */\n      0x00\n        /* \"#utility.yul\":8239:8240   */\n      dup1\n        /* \"#utility.yul\":8232:8244   */\n      revert\n        /* \"#utility.yul\":8256:8436   */\n    tag_78:\n        /* \"#utility.yul\":8304:8381   */\n      0x4e487b7100000000000000000000000000000000000000000000000000000000\n        /* \"#utility.yul\":8301:8302   */\n      0x00\n        /* \"#utility.yul\":8294:8382   */\n      mstore\n        /* \"#utility.yul\":8401:8405   */\n      0x41\n        /* \"#utility.yul\":8398:8399   */\n      0x04\n        /* \"#utility.yul\":8391:8406   */\n      mstore\n        /* \"#utility.yul\":8425:8429   */\n      0x24\n        /* \"#utility.yul\":8422:8423   */\n      0x00\n        /* \"#utility.yul\":8415:8430   */\n      revert\n        /* \"#utility.yul\":8442:8723   */\n    tag_79:\n        /* \"#utility.yul\":8525:8552   */\n      tag_177\n        /* \"#utility.yul\":8547:8551   */\n      dup3\n        /* \"#utility.yul\":8525:8552   */\n      tag_65\n      jump\t// in\n    tag_177:\n        /* \"#utility.yul\":8517:8523   */\n      dup2\n        /* \"#utility.yul\":8513:8553   */\n      add\n        /* \"#utility.yul\":8655:8661   */\n      dup2\n        /* \"#utility.yul\":8643:8653   */\n      dup2\n        /* \"#utility.yul\":8640:8662   */\n      lt\n        /* \"#utility.yul\":8619:8637   */\n      0xffffffffffffffff\n        /* \"#utility.yul\":8607:8617   */\n      dup3\n        /* \"#utility.yul\":8604:8638   */\n      gt\n        /* \"#utility.yul\":8601:8663   */\n      or\n        /* \"#utility.yul\":8598:8686   */\n      iszero\n      tag_178\n      jumpi\n        /* \"#utility.yul\":8666:8684   */\n      tag_179\n      tag_78\n      jump\t// in\n    tag_179:\n        /* \"#utility.yul\":8598:8686   */\n    tag_178:\n        /* \"#utility.yul\":8706:8716   */\n      dup1\n        /* \"#utility.yul\":8702:8704   */\n      0x40\n        /* \"#utility.yul\":8695:8717   */\n      mstore\n        /* \"#utility.yul\":8485:8723   */\n      pop\n        /* \"#utility.yul\":8442:8723   */\n      pop\n      pop\n      jump\t// out\n        /* \"#utility.yul\":8729:8858   */\n    tag_80:\n        /* \"#utility.yul\":8763:8769   */\n      0x00\n        /* \"#utility.yul\":8790:8810   */\n      tag_181\n      tag_51\n      jump\t// in\n    tag_181:\n        /* \"#utility.yul\":8780:8810   */\n      swap1\n      pop\n        /* \"#utility.yul\":8819:8852   */\n      tag_182\n        /* \"#utility.yul\":8847:8851   */\n      dup3\n        /* \"#utility.yul\":8839:8845   */\n      dup3\n        /* \"#utility.yul\":8819:8852   */\n      tag_79\n      jump\t// in\n    tag_182:\n        /* \"#utility.yul\":8729:8858   */\n      swap2\n      swap1\n      pop\n      jump\t// out\n        /* \"#utility.yul\":8864:9172   */\n    tag_81:\n        /* \"#utility.yul\":8926:8930   */\n      0x00\n        /* \"#utility.yul\":9016:9034   */\n      0xffffffffffffffff\n        /* \"#utility.yul\":9008:9014   */\n      dup3\n        /* \"#utility.yul\":9005:9035   */\n      gt\n        /* \"#utility.yul\":9002:9058   */\n      iszero\n      tag_184\n      jumpi\n        /* \"#utility.yul\":9038:9056   */\n      tag_185\n      tag_78\n      jump\t// in\n    tag_185:\n        /* \"#utility.yul\":9002:9058   */\n    tag_184:\n        /* \"#utility.yul\":9076:9105   */\n      tag_186\n        /* \"#utility.yul\":9098:9104   */\n      dup3\n        /* \"#utility.yul\":9076:9105   */\n      tag_65\n      jump\t// in\n    tag_186:\n        /* \"#utility.yul\":9068:9105   */\n      swap1\n      pop\n        /* \"#utility.yul\":9160:9164   */\n      0x20\n        /* \"#utility.yul\":9154:9158   */\n      dup2\n        /* \"#utility.yul\":9150:9165   */\n      add\n        /* \"#utility.yul\":9142:9165   */\n      swap1\n      pop\n        /* \"#utility.yul\":8864:9172   */\n      swap2\n      swap1\n      pop\n      jump\t// out\n        /* \"#utility.yul\":9178:9326   */\n    tag_82:\n        /* \"#utility.yul\":9276:9282   */\n      dup3\n        /* \"#utility.yul\":9271:9274   */\n      dup2\n        /* \"#utility.yul\":9266:9269   */\n      dup4\n        /* \"#utility.yul\":9253:9283   */\n      calldatacopy\n        /* \"#utility.yul\":9317:9318   */\n      0x00\n        /* \"#utility.yul\":9308:9314   */\n      dup4\n        /* \"#utility.yul\":9303:9306   */\n      dup4\n        /* \"#utility.yul\":9299:9315   */\n      add\n        /* \"#utility.yul\":9292:9319   */\n      mstore\n        /* \"#utility.yul\":9178:9326   */\n      pop\n      pop\n      pop\n      jump\t// out\n        /* \"#utility.yul\":9332:9757   */\n    tag_83:\n        /* \"#utility.yul\":9410:9415   */\n      0x00\n        /* \"#utility.yul\":9435:9501   */\n      tag_189\n        /* \"#utility.yul\":9451:9500   */\n      tag_190\n        /* \"#utility.yul\":9493:9499   */\n      dup5\n        /* \"#utility.yul\":9451:9500   */\n      tag_81\n      jump\t// in\n    tag_190:\n        /* \"#utility.yul\":9435:9501   */\n      tag_80\n      jump\t// in\n    tag_189:\n        /* \"#utility.yul\":9426:9501   */\n      swap1\n      pop\n        /* \"#utility.yul\":9524:9530   */\n      dup3\n        /* \"#utility.yul\":9517:9522   */\n      dup2\n        /* \"#utility.yul\":9510:9531   */\n      mstore\n        /* \"#utility.yul\":9562:9566   */\n      0x20\n        /* \"#utility.yul\":9555:9560   */\n      dup2\n        /* \"#utility.yul\":9551:9567   */\n      add\n        /* \"#utility.yul\":9600:9603   */\n      dup5\n        /* \"#utility.yul\":9591:9597   */\n      dup5\n        /* \"#utility.yul\":9586:9589   */\n      dup5\n        /* \"#utility.yul\":9582:9598   */\n      add\n        /* \"#utility.yul\":9579:9604   */\n      gt\n        /* \"#utility.yul\":9576:9688   */\n      iszero\n      tag_191\n      jumpi\n        /* \"#utility.yul\":9607:9686   */\n      tag_192\n      tag_77\n      jump\t// in\n    tag_192:\n        /* \"#utility.yul\":9576:9688   */\n    tag_191:\n        /* \"#utility.yul\":9697:9751   */\n      tag_193\n        /* \"#utility.yul\":9744:9750   */\n      dup5\n        /* \"#utility.yul\":9739:9742   */\n      dup3\n        /* \"#utility.yul\":9734:9737   */\n      dup6\n        /* \"#utility.yul\":9697:9751   */\n      tag_82\n      jump\t// in\n    tag_193:\n        /* \"#utility.yul\":9416:9757   */\n      pop\n        /* \"#utility.yul\":9332:9757   */\n      swap4\n      swap3\n      pop\n      pop\n      pop\n      jump\t// out\n        /* \"#utility.yul\":9777:10117   */\n    tag_84:\n        /* \"#utility.yul\":9833:9838   */\n      0x00\n        /* \"#utility.yul\":9882:9885   */\n      dup3\n        /* \"#utility.yul\":9875:9879   */\n      0x1f\n        /* \"#utility.yul\":9867:9873   */\n      dup4\n        /* \"#utility.yul\":9863:9880   */\n      add\n        /* \"#utility.yul\":9859:9886   */\n      slt\n        /* \"#utility.yul\":9849:9971   */\n      tag_195\n      jumpi\n        /* \"#utility.yul\":9890:9969   */\n      tag_196\n      tag_76\n      jump\t// in\n    tag_196:\n        /* \"#utility.yul\":9849:9971   */\n    tag_195:\n        /* \"#utility.yul\":10007:10013   */\n      dup2\n        /* \"#utility.yul\":9994:10014   */\n      calldataload\n        /* \"#utility.yul\":10032:10111   */\n      tag_197\n        /* \"#utility.yul\":10107:10110   */\n      dup5\n        /* \"#utility.yul\":10099:10105   */\n      dup3\n        /* \"#utility.yul\":10092:10096   */\n      0x20\n        /* \"#utility.yul\":10084:10090   */\n      dup7\n        /* \"#utility.yul\":10080:10097   */\n      add\n        /* \"#utility.yul\":10032:10111   */\n      tag_83\n      jump\t// in\n    tag_197:\n        /* \"#utility.yul\":10023:10111   */\n      swap2\n      pop\n        /* \"#utility.yul\":9839:10117   */\n      pop\n        /* \"#utility.yul\":9777:10117   */\n      swap3\n      swap2\n      pop\n      pop\n      jump\t// out\n        /* \"#utility.yul\":10123:10632   */\n    tag_20:\n        /* \"#utility.yul\":10192:10198   */\n      0x00\n        /* \"#utility.yul\":10241:10243   */\n      0x20\n        /* \"#utility.yul\":10229:10238   */\n      dup3\n        /* \"#utility.yul\":10220:10227   */\n      dup5\n        /* \"#utility.yul\":10216:10239   */\n      sub\n        /* \"#utility.yul\":10212:10244   */\n      slt\n        /* \"#utility.yul\":10209:10328   */\n      iszero\n      tag_199\n      jumpi\n        /* \"#utility.yul\":10247:10326   */\n      tag_200\n      tag_52\n      jump\t// in\n    tag_200:\n        /* \"#utility.yul\":10209:10328   */\n    tag_199:\n        /* \"#utility.yul\":10395:10396   */\n      0x00\n        /* \"#utility.yul\":10384:10393   */\n      dup3\n        /* \"#utility.yul\":10380:10397   */\n      add\n        /* \"#utility.yul\":10367:10398   */\n      calldataload\n        /* \"#utility.yul\":10425:10443   */\n      0xffffffffffffffff\n        /* \"#utility.yul\":10417:10423   */\n      dup2\n        /* \"#utility.yul\":10414:10444   */\n      gt\n        /* \"#utility.yul\":10411:10528   */\n      iszero\n      tag_201\n      jumpi\n        /* \"#utility.yul\":10447:10526   */\n      tag_202\n      tag_53\n      jump\t// in\n    tag_202:\n        /* \"#utility.yul\":10411:10528   */\n    tag_201:\n        /* \"#utility.yul\":10552:10615   */\n      tag_203\n        /* \"#utility.yul\":10607:10614   */\n      dup5\n        /* \"#utility.yul\":10598:10604   */\n      dup3\n        /* \"#utility.yul\":10587:10596   */\n      dup6\n        /* \"#utility.yul\":10583:10605   */\n      add\n        /* \"#utility.yul\":10552:10615   */\n      tag_84\n      jump\t// in\n    tag_203:\n        /* \"#utility.yul\":10542:10615   */\n      swap2\n      pop\n        /* \"#utility.yul\":10338:10625   */\n      pop\n        /* \"#utility.yul\":10123:10632   */\n      swap3\n      swap2\n      pop\n      pop\n      jump\t// out\n        /* \"#utility.yul\":10638:10818   */\n    tag_27:\n        /* \"#utility.yul\":10686:10763   */\n      0x4e487b7100000000000000000000000000000000000000000000000000000000\n        /* \"#utility.yul\":10683:10684   */\n      0x00\n        /* \"#utility.yul\":10676:10764   */\n      mstore\n        /* \"#utility.yul\":10783:10787   */\n      0x32\n        /* \"#utility.yul\":10780:10781   */\n      0x04\n        /* \"#utility.yul\":10773:10788   */\n      mstore\n        /* \"#utility.yul\":10807:10811   */\n      0x24\n        /* \"#utility.yul\":10804:10805   */\n      0x00\n        /* \"#utility.yul\":10797:10812   */\n      revert\n        /* \"#utility.yul\":10824:11004   */\n    tag_85:\n        /* \"#utility.yul\":10872:10949   */\n      0x4e487b7100000000000000000000000000000000000000000000000000000000\n        /* \"#utility.yul\":10869:10870   */\n      0x00\n        /* \"#utility.yul\":10862:10950   */\n      mstore\n        /* \"#utility.yul\":10969:10973   */\n      0x22\n        /* \"#utility.yul\":10966:10967   */\n      0x04\n        /* \"#utility.yul\":10959:10974   */\n      mstore\n        /* \"#utility.yul\":10993:10997   */\n      0x24\n        /* \"#utility.yul\":10990:10991   */\n      0x00\n        /* \"#utility.yul\":10983:10998   */\n      revert\n        /* \"#utility.yul\":11010:11330   */\n    tag_30:\n        /* \"#utility.yul\":11054:11060   */\n      0x00\n        /* \"#utility.yul\":11091:11092   */\n      0x02\n        /* \"#utility.yul\":11085:11089   */\n      dup3\n        /* \"#utility.yul\":11081:11093   */\n      div\n        /* \"#utility.yul\":11071:11093   */\n      swap1\n      pop\n        /* \"#utility.yul\":11138:11139   */\n      0x01\n        /* \"#utility.yul\":11132:11136   */\n      dup3\n        /* \"#utility.yul\":11128:11140   */\n      and\n        /* \"#utility.yul\":11159:11177   */\n      dup1\n        /* \"#utility.yul\":11149:11230   */\n      tag_207\n      jumpi\n        /* \"#utility.yul\":11215:11219   */\n      0x7f\n        /* \"#utility.yul\":11207:11213   */\n      dup3\n        /* \"#utility.yul\":11203:11220   */\n      and\n        /* \"#utility.yul\":11193:11220   */\n      swap2\n      pop\n        /* \"#utility.yul\":11149:11230   */\n    tag_207:\n        /* \"#utility.yul\":11277:11279   */\n      0x20\n        /* \"#utility.yul\":11269:11275   */\n      dup3\n        /* \"#utility.yul\":11266:11280   */\n      lt\n        /* \"#utility.yul\":11246:11264   */\n      dup2\n        /* \"#utility.yul\":11243:11281   */\n      sub\n        /* \"#utility.yul\":11240:11324   */\n      tag_208\n      jumpi\n        /* \"#utility.yul\":11296:11314   */\n      tag_209\n      tag_85\n      jump\t// in\n    tag_209:\n        /* \"#utility.yul\":11240:11324   */\n    tag_208:\n        /* \"#utility.yul\":11061:11330   */\n      pop\n        /* \"#utility.yul\":11010:11330   */\n      swap2\n      swap1\n      pop\n      jump\t// out\n        /* \"#utility.yul\":11336:11505   */\n    tag_86:\n        /* \"#utility.yul\":11420:11431   */\n      0x00\n        /* \"#utility.yul\":11454:11460   */\n      dup3\n        /* \"#utility.yul\":11449:11452   */\n      dup3\n        /* \"#utility.yul\":11442:11461   */\n      mstore\n        /* \"#utility.yul\":11494:11498   */\n      0x20\n        /* \"#utility.yul\":11489:11492   */\n      dup3\n        /* \"#utility.yul\":11485:11499   */\n      add\n        /* \"#utility.yul\":11470:11499   */\n      swap1\n      pop\n        /* \"#utility.yul\":11336:11505   */\n      swap3\n      swap2\n      pop\n      pop\n      jump\t// out\n        /* \"#utility.yul\":11511:11680   */\n    tag_87:\n        /* \"#utility.yul\":11651:11672   */\n      0x547765657420697320746f6f206c6f6e67212100000000000000000000000000\n        /* \"#utility.yul\":11647:11648   */\n      0x00\n        /* \"#utility.yul\":11639:11645   */\n      dup3\n        /* \"#utility.yul\":11635:11649   */\n      add\n        /* \"#utility.yul\":11628:11673   */\n      mstore\n        /* \"#utility.yul\":11511:11680   */\n      pop\n      jump\t// out\n        /* \"#utility.yul\":11686:12052   */\n    tag_88:\n        /* \"#utility.yul\":11828:11831   */\n      0x00\n        /* \"#utility.yul\":11849:11916   */\n      tag_213\n        /* \"#utility.yul\":11913:11915   */\n      0x13\n        /* \"#utility.yul\":11908:11911   */\n      dup4\n        /* \"#utility.yul\":11849:11916   */\n      tag_86\n      jump\t// in\n    tag_213:\n        /* \"#utility.yul\":11842:11916   */\n      swap2\n      pop\n        /* \"#utility.yul\":11925:12018   */\n      tag_214\n        /* \"#utility.yul\":12014:12017   */\n      dup3\n        /* \"#utility.yul\":11925:12018   */\n      tag_87\n      jump\t// in\n    tag_214:\n        /* \"#utility.yul\":12043:12045   */\n      0x20\n        /* \"#utility.yul\":12038:12041   */\n      dup3\n        /* \"#utility.yul\":12034:12046   */\n      add\n        /* \"#utility.yul\":12027:12046   */\n      swap1\n      pop\n        /* \"#utility.yul\":11686:12052   */\n      swap2\n      swap1\n      pop\n      jump\t// out\n        /* \"#utility.yul\":12058:12477   */\n    tag_47:\n        /* \"#utility.yul\":12224:12228   */\n      0x00\n        /* \"#utility.yul\":12262:12264   */\n      0x20\n        /* \"#utility.yul\":12251:12260   */\n      dup3\n        /* \"#utility.yul\":12247:12265   */\n      add\n        /* \"#utility.yul\":12239:12265   */\n      swap1\n      pop\n        /* \"#utility.yul\":12311:12320   */\n      dup2\n        /* \"#utility.yul\":12305:12309   */\n      dup2\n        /* \"#utility.yul\":12301:12321   */\n      sub\n        /* \"#utility.yul\":12297:12298   */\n      0x00\n        /* \"#utility.yul\":12286:12295   */\n      dup4\n        /* \"#utility.yul\":12282:12299   */\n      add\n        /* \"#utility.yul\":12275:12322   */\n      mstore\n        /* \"#utility.yul\":12339:12470   */\n      tag_216\n        /* \"#utility.yul\":12465:12469   */\n      dup2\n        /* \"#utility.yul\":12339:12470   */\n      tag_88\n      jump\t// in\n    tag_216:\n        /* \"#utility.yul\":12331:12470   */\n      swap1\n      pop\n        /* \"#utility.yul\":12058:12477   */\n      swap2\n      swap1\n      pop\n      jump\t// out\n        /* \"#utility.yul\":12483:12624   */\n    tag_89:\n        /* \"#utility.yul\":12532:12536   */\n      0x00\n        /* \"#utility.yul\":12555:12558   */\n      dup2\n        /* \"#utility.yul\":12547:12558   */\n      swap1\n      pop\n        /* \"#utility.yul\":12578:12581   */\n      dup2\n        /* \"#utility.yul\":12575:12576   */\n      0x00\n        /* \"#utility.yul\":12568:12582   */\n      mstore\n        /* \"#utility.yul\":12612:12616   */\n      0x20\n        /* \"#utility.yul\":12609:12610   */\n      0x00\n        /* \"#utility.yul\":12599:12617   */\n      keccak256\n        /* \"#utility.yul\":12591:12617   */\n      swap1\n      pop\n        /* \"#utility.yul\":12483:12624   */\n      swap2\n      swap1\n      pop\n      jump\t// out\n        /* \"#utility.yul\":12630:12723   */\n    tag_90:\n        /* \"#utility.yul\":12667:12673   */\n      0x00\n        /* \"#utility.yul\":12714:12716   */\n      0x20\n        /* \"#utility.yul\":12709:12711   */\n      0x1f\n        /* \"#utility.yul\":12702:12707   */\n      dup4\n        /* \"#utility.yul\":12698:12712   */\n      add\n        /* \"#utility.yul\":12694:12717   */\n      div\n        /* \"#utility.yul\":12684:12717   */\n      swap1\n      pop\n        /* \"#utility.yul\":12630:12723   */\n      swap2\n      swap1\n      pop\n      jump\t// out\n        /* \"#utility.yul\":12729:12836   */\n    tag_91:\n        /* \"#utility.yul\":12773:12781   */\n      0x00\n        /* \"#utility.yul\":12823:12828   */\n      dup3\n        /* \"#utility.yul\":12817:12821   */\n      dup3\n        /* \"#utility.yul\":12813:12829   */\n      shl\n        /* \"#utility.yul\":12792:12829   */\n      swap1\n      pop\n        /* \"#utility.yul\":12729:12836   */\n      swap3\n      swap2\n      pop\n      pop\n      jump\t// out\n        /* \"#utility.yul\":12842:13235   */\n    tag_92:\n        /* \"#utility.yul\":12911:12917   */\n      0x00\n        /* \"#utility.yul\":12961:12962   */\n      0x08\n        /* \"#utility.yul\":12949:12959   */\n      dup4\n        /* \"#utility.yul\":12945:12963   */\n      mul\n        /* \"#utility.yul\":12984:13081   */\n      tag_221\n        /* \"#utility.yul\":13014:13080   */\n      0xffffffffffffffffffffffffffffffffffffffffffffffffffffffffffffffff\n        /* \"#utility.yul\":13003:13012   */\n      dup3\n        /* \"#utility.yul\":12984:13081   */\n      tag_91\n      jump\t// in\n    tag_221:\n        /* \"#utility.yul\":13102:13141   */\n      tag_222\n        /* \"#utility.yul\":13132:13140   */\n      dup7\n        /* \"#utility.yul\":13121:13130   */\n      dup4\n        /* \"#utility.yul\":13102:13141   */\n      tag_91\n      jump\t// in\n    tag_222:\n        /* \"#utility.yul\":13090:13141   */\n      swap6\n      pop\n        /* \"#utility.yul\":13174:13178   */\n      dup1\n        /* \"#utility.yul\":13170:13179   */\n      not\n        /* \"#utility.yul\":13163:13168   */\n      dup5\n        /* \"#utility.yul\":13159:13180   */\n      and\n        /* \"#utility.yul\":13150:13180   */\n      swap4\n      pop\n        /* \"#utility.yul\":13223:13227   */\n      dup1\n        /* \"#utility.yul\":13213:13221   */\n      dup7\n        /* \"#utility.yul\":13209:13228   */\n      and\n        /* \"#utility.yul\":13202:13207   */\n      dup5\n        /* \"#utility.yul\":13199:13229   */\n      or\n        /* \"#utility.yul\":13189:13229   */\n      swap3\n      pop\n        /* \"#utility.yul\":12918:13235   */\n      pop\n      pop\n        /* \"#utility.yul\":12842:13235   */\n      swap4\n      swap3\n      pop\n      pop\n      pop\n      jump\t// out\n        /* \"#utility.yul\":13241:13301   */\n    tag_93:\n        /* \"#utility.yul\":13269:13272   */\n      0x00\n        /* \"#utility.yul\":13290:13295   */\n      dup2\n        /* \"#utility.yul\":13283:13295   */\n      swap1\n      pop\n        /* \"#utility.yul\":13241:13301   */\n      swap2\n      swap1\n      pop\n      jump\t// out\n        /* \"#utility.yul\":13307:13449   */\n    tag_94:\n        /* \"#utility.yul\":13357:13366   */\n      0x00\n        /* \"#utility.yul\":13390:13443   */\n      tag_225\n        /* \"#utility.yul\":13408:13442   */\n      tag_226\n        /* \"#utility.yul\":13417:13441   */\n      tag_227\n        /* \"#utility.yul\":13435:13440   */\n      dup5\n        /* \"#utility.yul\":13417:13441   */\n      tag_58\n      jump\t// in\n    tag_227:\n        /* \"#utility.yul\":13408:13442   */\n      tag_93\n      jump\t// in\n    tag_226:\n        /* \"#utility.yul\":13390:13443   */\n      tag_58\n      jump\t// in\n    tag_225:\n        /* \"#utility.yul\":13377:13443   */\n      swap1\n      pop\n        /* \"#utility.yul\":13307:13449   */\n      swap2\n      swap1\n      pop\n      jump\t// out\n        /* \"#utility.yul\":13455:13530   */\n    tag_95:\n        /* \"#utility.yul\":13498:13501   */\n      0x00\n        /* \"#utility.yul\":13519:13524   */\n      dup2\n        /* \"#utility.yul\":13512:13524   */\n      swap1\n      pop\n        /* \"#utility.yul\":13455:13530   */\n      swap2\n      swap1\n      pop\n      jump\t// out\n        /* \"#utility.yul\":13536:13805   */\n    tag_96:\n        /* \"#utility.yul\":13646:13685   */\n      tag_230\n        /* \"#utility.yul\":13677:13684   */\n      dup4\n        /* \"#utility.yul\":13646:13685   */\n      tag_94\n      jump\t// in\n    tag_230:\n        /* \"#utility.yul\":13707:13798   */\n      tag_231\n        /* \"#utility.yul\":13756:13797   */\n      tag_232\n        /* \"#utility.yul\":13780:13796   */\n      dup3\n        /* \"#utility.yul\":13756:13797   */\n      tag_95\n      jump\t// in\n    tag_232:\n        /* \"#utility.yul\":13748:13754   */\n      dup5\n        /* \"#utility.yul\":13741:13745   */\n      dup5\n        /* \"#utility.yul\":13735:13746   */\n      sload\n        /* \"#utility.yul\":13707:13798   */\n      tag_92\n      jump\t// in\n    tag_231:\n        /* \"#utility.yul\":13701:13705   */\n      dup3\n        /* \"#utility.yul\":13694:13799   */\n      sstore\n        /* \"#utility.yul\":13612:13805   */\n      pop\n        /* \"#utility.yul\":13536:13805   */\n      pop\n      pop\n      pop\n      jump\t// out\n        /* \"#utility.yul\":13811:13884   */\n    tag_97:\n        /* \"#utility.yul\":13856:13859   */\n      0x00\n        /* \"#utility.yul\":13811:13884   */\n      swap1\n      jump\t// out\n        /* \"#utility.yul\":13890:14079   */\n    tag_98:\n        /* \"#utility.yul\":13967:13999   */\n      tag_235\n      tag_97\n      jump\t// in\n    tag_235:\n        /* \"#utility.yul\":14008:14073   */\n      tag_236\n        /* \"#utility.yul\":14066:14072   */\n      dup2\n        /* \"#utility.yul\":14058:14064   */\n      dup5\n        /* \"#utility.yul\":14052:14056   */\n      dup5\n        /* \"#utility.yul\":14008:14073   */\n      tag_96\n      jump\t// in\n    tag_236:\n        /* \"#utility.yul\":13943:14079   */\n      pop\n        /* \"#utility.yul\":13890:14079   */\n      pop\n      pop\n      jump\t// out\n        /* \"#utility.yul\":14085:14271   */\n    tag_99:\n        /* \"#utility.yul\":14145:14265   */\n    tag_238:\n        /* \"#utility.yul\":14162:14165   */\n      dup2\n        /* \"#utility.yul\":14155:14160   */\n      dup2\n        /* \"#utility.yul\":14152:14166   */\n      lt\n        /* \"#utility.yul\":14145:14265   */\n      iszero\n      tag_240\n      jumpi\n        /* \"#utility.yul\":14216:14255   */\n      tag_241\n        /* \"#utility.yul\":14253:14254   */\n      0x00\n        /* \"#utility.yul\":14246:14251   */\n      dup3\n        /* \"#utility.yul\":14216:14255   */\n      tag_98\n      jump\t// in\n    tag_241:\n        /* \"#utility.yul\":14189:14190   */\n      0x01\n        /* \"#utility.yul\":14182:14187   */\n      dup2\n        /* \"#utility.yul\":14178:14191   */\n      add\n        /* \"#utility.yul\":14169:14191   */\n      swap1\n      pop\n        /* \"#utility.yul\":14145:14265   */\n      jump(tag_238)\n    tag_240:\n        /* \"#utility.yul\":14085:14271   */\n      pop\n      pop\n      jump\t// out\n        /* \"#utility.yul\":14277:14820   */\n    tag_100:\n        /* \"#utility.yul\":14378:14380   */\n      0x1f\n        /* \"#utility.yul\":14373:14376   */\n      dup3\n        /* \"#utility.yul\":14370:14381   */\n      gt\n        /* \"#utility.yul\":14367:14813   */\n      iszero\n      tag_243\n      jumpi\n        /* \"#utility.yul\":14412:14450   */\n      tag_244\n        /* \"#utility.yul\":14444:14449   */\n      dup2\n        /* \"#utility.yul\":14412:14450   */\n      tag_89\n      jump\t// in\n    tag_244:\n        /* \"#utility.yul\":14496:14525   */\n      tag_245\n        /* \"#utility.yul\":14514:14524   */\n      dup5\n        /* \"#utility.yul\":14496:14525   */\n      tag_90\n      jump\t// in\n    tag_245:\n        /* \"#utility.yul\":14486:14494   */\n      dup2\n        /* \"#utility.yul\":14482:14526   */\n      add\n        /* \"#utility.yul\":14679:14681   */\n      0x20\n        /* \"#utility.yul\":14667:14677   */\n      dup6\n        /* \"#utility.yul\":14664:14682   */\n      lt\n        /* \"#utility.yul\":14661:14710   */\n      iszero\n      tag_246\n      jumpi\n        /* \"#utility.yul\":14700:14708   */\n      dup2\n        /* \"#utility.yul\":14685:14708   */\n      swap1\n      pop\n        /* \"#utility.yul\":14661:14710   */\n    tag_246:\n        /* \"#utility.yul\":14723:14803   */\n      tag_247\n        /* \"#utility.yul\":14779:14801   */\n      tag_248\n        /* \"#utility.yul\":14797:14800   */\n      dup6\n        /* \"#utility.yul\":14779:14801   */\n      tag_90\n      jump\t// in\n    tag_248:\n        /* \"#utility.yul\":14769:14777   */\n      dup4\n        /* \"#utility.yul\":14765:14802   */\n      add\n        /* \"#utility.yul\":14752:14763   */\n      dup3\n        /* \"#utility.yul\":14723:14803   */\n      tag_99\n      jump\t// in\n    tag_247:\n        /* \"#utility.yul\":14382:14813   */\n      pop\n      pop\n        /* \"#utility.yul\":14367:14813   */\n    tag_243:\n        /* \"#utility.yul\":14277:14820   */\n      pop\n      pop\n      pop\n      jump\t// out\n        /* \"#utility.yul\":14826:14943   */\n    tag_101:\n        /* \"#utility.yul\":14880:14888   */\n      0x00\n        /* \"#utility.yul\":14930:14935   */\n      dup3\n        /* \"#utility.yul\":14924:14928   */\n      dup3\n        /* \"#utility.yul\":14920:14936   */\n      shr\n        /* \"#utility.yul\":14899:14936   */\n      swap1\n      pop\n        /* \"#utility.yul\":14826:14943   */\n      swap3\n      swap2\n      pop\n      pop\n      jump\t// out\n        /* \"#utility.yul\":14949:15118   */\n    tag_102:\n        /* \"#utility.yul\":14993:14999   */\n      0x00\n        /* \"#utility.yul\":15026:15077   */\n      tag_251\n        /* \"#utility.yul\":15074:15075   */\n      0x00\n        /* \"#utility.yul\":15070:15076   */\n      not\n        /* \"#utility.yul\":15062:15067   */\n      dup5\n        /* \"#utility.yul\":15059:15060   */\n      0x08\n        /* \"#utility.yul\":15055:15068   */\n      mul\n        /* \"#utility.yul\":15026:15077   */\n      tag_101\n      jump\t// in\n    tag_251:\n        /* \"#utility.yul\":15022:15078   */\n      not\n        /* \"#utility.yul\":15107:15111   */\n      dup1\n        /* \"#utility.yul\":15101:15105   */\n      dup4\n        /* \"#utility.yul\":15097:15112   */\n      and\n        /* \"#utility.yul\":15087:15112   */\n      swap2\n      pop\n        /* \"#utility.yul\":15000:15118   */\n      pop\n        /* \"#utility.yul\":14949:15118   */\n      swap3\n      swap2\n      pop\n      pop\n      jump\t// out\n        /* \"#utility.yul\":15123:15418   */\n    tag_103:\n        /* \"#utility.yul\":15199:15203   */\n      0x00\n        /* \"#utility.yul\":15345:15374   */\n      tag_253\n        /* \"#utility.yul\":15370:15373   */\n      dup4\n        /* \"#utility.yul\":15364:15368   */\n      dup4\n        /* \"#utility.yul\":15345:15374   */\n      tag_102\n      jump\t// in\n    tag_253:\n        /* \"#utility.yul\":15337:15374   */\n      swap2\n      pop\n        /* \"#utility.yul\":15407:15410   */\n      dup3\n        /* \"#utility.yul\":15404:15405   */\n      0x02\n        /* \"#utility.yul\":15400:15411   */\n      mul\n        /* \"#utility.yul\":15394:15398   */\n      dup3\n        /* \"#utility.yul\":15391:15412   */\n      or\n        /* \"#utility.yul\":15383:15412   */\n      swap1\n      pop\n        /* \"#utility.yul\":15123:15418   */\n      swap3\n      swap2\n      pop\n      pop\n      jump\t// out\n        /* \"#utility.yul\":15423:16818   */\n    tag_50:\n        /* \"#utility.yul\":15540:15577   */\n      tag_255\n        /* \"#utility.yul\":15573:15576   */\n      dup3\n        /* \"#utility.yul\":15540:15577   */\n      tag_62\n      jump\t// in\n    tag_255:\n        /* \"#utility.yul\":15642:15660   */\n      0xffffffffffffffff\n        /* \"#utility.yul\":15634:15640   */\n      dup2\n        /* \"#utility.yul\":15631:15661   */\n      gt\n        /* \"#utility.yul\":15628:15684   */\n      iszero\n      tag_256\n      jumpi\n        /* \"#utility.yul\":15664:15682   */\n      tag_257\n      tag_78\n      jump\t// in\n    tag_257:\n        /* \"#utility.yul\":15628:15684   */\n    tag_256:\n        /* \"#utility.yul\":15708:15746   */\n      tag_258\n        /* \"#utility.yul\":15740:15744   */\n      dup3\n        /* \"#utility.yul\":15734:15745   */\n      sload\n        /* \"#utility.yul\":15708:15746   */\n      tag_30\n      jump\t// in\n    tag_258:\n        /* \"#utility.yul\":15793:15860   */\n      tag_259\n        /* \"#utility.yul\":15853:15859   */\n      dup3\n        /* \"#utility.yul\":15845:15851   */\n      dup3\n        /* \"#utility.yul\":15839:15843   */\n      dup6\n        /* \"#utility.yul\":15793:15860   */\n      tag_100\n      jump\t// in\n    tag_259:\n        /* \"#utility.yul\":15887:15888   */\n      0x00\n        /* \"#utility.yul\":15911:15915   */\n      0x20\n        /* \"#utility.yul\":15898:15915   */\n      swap1\n      pop\n        /* \"#utility.yul\":15943:15945   */\n      0x1f\n        /* \"#utility.yul\":15935:15941   */\n      dup4\n        /* \"#utility.yul\":15932:15946   */\n      gt\n        /* \"#utility.yul\":15960:15961   */\n      0x01\n        /* \"#utility.yul\":15955:16573   */\n      dup2\n      eq\n      tag_261\n      jumpi\n        /* \"#utility.yul\":16617:16618   */\n      0x00\n        /* \"#utility.yul\":16634:16640   */\n      dup5\n        /* \"#utility.yul\":16631:16708   */\n      iszero\n      tag_262\n      jumpi\n        /* \"#utility.yul\":16683:16692   */\n      dup3\n        /* \"#utility.yul\":16678:16681   */\n      dup8\n        /* \"#utility.yul\":16674:16693   */\n      add\n        /* \"#utility.yul\":16668:16694   */\n      mload\n        /* \"#utility.yul\":16659:16694   */\n      swap1\n      pop\n        /* \"#utility.yul\":16631:16708   */\n    tag_262:\n        /* \"#utility.yul\":16734:16801   */\n      tag_263\n        /* \"#utility.yul\":16794:16800   */\n      dup6\n        /* \"#utility.yul\":16787:16792   */\n      dup3\n        /* \"#utility.yul\":16734:16801   */\n      tag_103\n      jump\t// in\n    tag_263:\n        /* \"#utility.yul\":16728:16732   */\n      dup7\n        /* \"#utility.yul\":16721:16802   */\n      sstore\n        /* \"#utility.yul\":16590:16812   */\n      pop\n        /* \"#utility.yul\":15925:16812   */\n      jump(tag_260)\n        /* \"#utility.yul\":15955:16573   */\n    tag_261:\n        /* \"#utility.yul\":16007:16011   */\n      0x1f\n        /* \"#utility.yul\":16003:16012   */\n      not\n        /* \"#utility.yul\":15995:16001   */\n      dup5\n        /* \"#utility.yul\":15991:16013   */\n      and\n        /* \"#utility.yul\":16041:16078   */\n      tag_264\n        /* \"#utility.yul\":16073:16077   */\n      dup7\n        /* \"#utility.yul\":16041:16078   */\n      tag_89\n      jump\t// in\n    tag_264:\n        /* \"#utility.yul\":16100:16101   */\n      0x00\n        /* \"#utility.yul\":16114:16322   */\n    tag_265:\n        /* \"#utility.yul\":16128:16135   */\n      dup3\n        /* \"#utility.yul\":16125:16126   */\n      dup2\n        /* \"#utility.yul\":16122:16136   */\n      lt\n        /* \"#utility.yul\":16114:16322   */\n      iszero\n      tag_267\n      jumpi\n        /* \"#utility.yul\":16207:16216   */\n      dup5\n        /* \"#utility.yul\":16202:16205   */\n      dup10\n        /* \"#utility.yul\":16198:16217   */\n      add\n        /* \"#utility.yul\":16192:16218   */\n      mload\n        /* \"#utility.yul\":16184:16190   */\n      dup3\n        /* \"#utility.yul\":16177:16219   */\n      sstore\n        /* \"#utility.yul\":16258:16259   */\n      0x01\n        /* \"#utility.yul\":16250:16256   */\n      dup3\n        /* \"#utility.yul\":16246:16260   */\n      add\n        /* \"#utility.yul\":16236:16260   */\n      swap2\n      pop\n        /* \"#utility.yul\":16305:16307   */\n      0x20\n        /* \"#utility.yul\":16294:16303   */\n      dup6\n        /* \"#utility.yul\":16290:16308   */\n      add\n        /* \"#utility.yul\":16277:16308   */\n      swap5\n      pop\n        /* \"#utility.yul\":16151:16155   */\n      0x20\n        /* \"#utility.yul\":16148:16149   */\n      dup2\n        /* \"#utility.yul\":16144:16156   */\n      add\n        /* \"#utility.yul\":16139:16156   */\n      swap1\n      pop\n        /* \"#utility.yul\":16114:16322   */\n      jump(tag_265)\n    tag_267:\n        /* \"#utility.yul\":16350:16356   */\n      dup7\n        /* \"#utility.yul\":16341:16348   */\n      dup4\n        /* \"#utility.yul\":16338:16357   */\n      lt\n        /* \"#utility.yul\":16335:16514   */\n      iszero\n      tag_268\n      jumpi\n        /* \"#utility.yul\":16408:16417   */\n      dup5\n        /* \"#utility.yul\":16403:16406   */\n      dup10\n        /* \"#utility.yul\":16399:16418   */\n      add\n        /* \"#utility.yul\":16393:16419   */\n      mload\n        /* \"#utility.yul\":16451:16499   */\n      tag_269\n        /* \"#utility.yul\":16493:16497   */\n      0x1f\n        /* \"#utility.yul\":16485:16491   */\n      dup10\n        /* \"#utility.yul\":16481:16498   */\n      and\n        /* \"#utility.yul\":16470:16479   */\n      dup3\n        /* \"#utility.yul\":16451:16499   */\n      tag_102\n      jump\t// in\n    tag_269:\n        /* \"#utility.yul\":16443:16449   */\n      dup4\n        /* \"#utility.yul\":16436:16500   */\n      sstore\n        /* \"#utility.yul\":16358:16514   */\n      pop\n        /* \"#utility.yul\":16335:16514   */\n    tag_268:\n        /* \"#utility.yul\":16560:16561   */\n      0x01\n        /* \"#utility.yul\":16556:16557   */\n      0x02\n        /* \"#utility.yul\":16548:16554   */\n      dup9\n        /* \"#utility.yul\":16544:16558   */\n      mul\n        /* \"#utility.yul\":16540:16562   */\n      add\n        /* \"#utility.yul\":16534:16538   */\n      dup9\n        /* \"#utility.yul\":16527:16563   */\n      sstore\n        /* \"#utility.yul\":15962:16573   */\n      pop\n      pop\n      pop\n        /* \"#utility.yul\":15925:16812   */\n    tag_260:\n      pop\n        /* \"#utility.yul\":15515:16818   */\n      pop\n      pop\n      pop\n        /* \"#utility.yul\":15423:16818   */\n      pop\n      pop\n      jump\t// out\n\n    auxdata: 0xa264697066735822122043bec8a53ba4f122fc3ef8dba7c415a244ae40631c6fd5041f09a72def2a3f7664736f6c634300081a0033\n}\n",
				"bytecode": {
					"linkReferences": {},
					"object": "6080604052348015600e575f80fd5b50610db98061001c5f395ff3fe608060405234801561000f575f80fd5b506004361061003f575f3560e01c8063112f54e31461004357806312e7ee1c146100735780637c9cd2bc146100a3575b5f80fd5b61005d600480360381019061005891906105f0565b6100bf565b60405161006a919061071c565b60405180910390f35b61008d6004803603810190610088919061073c565b61022c565b60405161009a9190610882565b60405180910390f35b6100bd60048036038101906100b891906109ce565b6103bc565b005b6100c7610517565b5f808473ffffffffffffffffffffffffffffffffffffffff1673ffffffffffffffffffffffffffffffffffffffff1681526020019081526020015f20828154811061011557610114610a15565b5b905f5260205f2090600402016040518060800160405290815f82015f9054906101000a900473ffffffffffffffffffffffffffffffffffffffff1673ffffffffffffffffffffffffffffffffffffffff1673ffffffffffffffffffffffffffffffffffffffff16815260200160018201805461019090610a6f565b80601f01602080910402602001604051908101604052809291908181526020018280546101bc90610a6f565b80156102075780601f106101de57610100808354040283529160200191610207565b820191905f5260205f20905b8154815290600101906020018083116101ea57829003601f168201915b5050505050815260200160028201548152602001600382015481525050905092915050565b60605f808373ffffffffffffffffffffffffffffffffffffffff1673ffffffffffffffffffffffffffffffffffffffff1681526020019081526020015f20805480602002602001604051908101604052809291908181526020015f905b828210156103b1578382905f5260205f2090600402016040518060800160405290815f82015f9054906101000a900473ffffffffffffffffffffffffffffffffffffffff1673ffffffffffffffffffffffffffffffffffffffff1673ffffffffffffffffffffffffffffffffffffffff16815260200160018201805461030e90610a6f565b80601f016020809104026020016040519081016040528092919081815260200182805461033a90610a6f565b80156103855780601f1061035c57610100808354040283529160200191610385565b820191905f5260205f20905b81548152906001019060200180831161036857829003601f168201915b505050505081526020016002820154815260200160038201548152505081526020019060010190610289565b505050509050919050565b61011861ffff1681511115610406576040517f08c379a00000000000000000000000000000000000000000000000000000000081526004016103fd90610af9565b60405180910390fd5b5f60405180608001604052803373ffffffffffffffffffffffffffffffffffffffff1681526020018381526020014281526020015f81525090505f803373ffffffffffffffffffffffffffffffffffffffff1673ffffffffffffffffffffffffffffffffffffffff1681526020019081526020015f2081908060018154018082558091505060019003905f5260205f2090600402015f909190919091505f820151815f015f6101000a81548173ffffffffffffffffffffffffffffffffffffffff021916908373ffffffffffffffffffffffffffffffffffffffff16021790555060208201518160010190816104fc9190610cb4565b50604082015181600201556060820151816003015550505050565b60405180608001604052805f73ffffffffffffffffffffffffffffffffffffffff168152602001606081526020015f81526020015f81525090565b5f604051905090565b5f80fd5b5f80fd5b5f73ffffffffffffffffffffffffffffffffffffffff82169050919050565b5f61058c82610563565b9050919050565b61059c81610582565b81146105a6575f80fd5b50565b5f813590506105b781610593565b92915050565b5f819050919050565b6105cf816105bd565b81146105d9575f80fd5b50565b5f813590506105ea816105c6565b92915050565b5f80604083850312156106065761060561055b565b5b5f610613858286016105a9565b9250506020610624858286016105dc565b9150509250929050565b61063781610582565b82525050565b5f81519050919050565b5f82825260208201905092915050565b8281835e5f83830152505050565b5f601f19601f8301169050919050565b5f61067f8261063d565b6106898185610647565b9350610699818560208601610657565b6106a281610665565b840191505092915050565b6106b6816105bd565b82525050565b5f608083015f8301516106d15f86018261062e565b50602083015184820360208601526106e98282610675565b91505060408301516106fe60408601826106ad565b50606083015161071160608601826106ad565b508091505092915050565b5f6020820190508181035f83015261073481846106bc565b905092915050565b5f602082840312156107515761075061055b565b5b5f61075e848285016105a9565b91505092915050565b5f81519050919050565b5f82825260208201905092915050565b5f819050602082019050919050565b5f608083015f8301516107a55f86018261062e565b50602083015184820360208601526107bd8282610675565b91505060408301516107d260408601826106ad565b5060608301516107e560608601826106ad565b508091505092915050565b5f6107fb8383610790565b905092915050565b5f602082019050919050565b5f61081982610767565b6108238185610771565b93508360208202850161083585610781565b805f5b85811015610870578484038952815161085185826107f0565b945061085c83610803565b925060208a01995050600181019050610838565b50829750879550505050505092915050565b5f6020820190508181035f83015261089a818461080f565b905092915050565b5f80fd5b5f80fd5b7f4e487b71000000000000000000000000000000000000000000000000000000005f52604160045260245ffd5b6108e082610665565b810181811067ffffffffffffffff821117156108ff576108fe6108aa565b5b80604052505050565b5f610911610552565b905061091d82826108d7565b919050565b5f67ffffffffffffffff82111561093c5761093b6108aa565b5b61094582610665565b9050602081019050919050565b828183375f83830152505050565b5f61097261096d84610922565b610908565b90508281526020810184848401111561098e5761098d6108a6565b5b610999848285610952565b509392505050565b5f82601f8301126109b5576109b46108a2565b5b81356109c5848260208601610960565b91505092915050565b5f602082840312156109e3576109e261055b565b5b5f82013567ffffffffffffffff811115610a00576109ff61055f565b5b610a0c848285016109a1565b91505092915050565b7f4e487b71000000000000000000000000000000000000000000000000000000005f52603260045260245ffd5b7f4e487b71000000000000000000000000000000000000000000000000000000005f52602260045260245ffd5b5f6002820490506001821680610a8657607f821691505b602082108103610a9957610a98610a42565b5b50919050565b5f82825260208201905092915050565b7f547765657420697320746f6f206c6f6e672121000000000000000000000000005f82015250565b5f610ae3601383610a9f565b9150610aee82610aaf565b602082019050919050565b5f6020820190508181035f830152610b1081610ad7565b9050919050565b5f819050815f5260205f209050919050565b5f6020601f8301049050919050565b5f82821b905092915050565b5f60088302610b737fffffffffffffffffffffffffffffffffffffffffffffffffffffffffffffffff82610b38565b610b7d8683610b38565b95508019841693508086168417925050509392505050565b5f819050919050565b5f610bb8610bb3610bae846105bd565b610b95565b6105bd565b9050919050565b5f819050919050565b610bd183610b9e565b610be5610bdd82610bbf565b848454610b44565b825550505050565b5f90565b610bf9610bed565b610c04818484610bc8565b505050565b5b81811015610c2757610c1c5f82610bf1565b600181019050610c0a565b5050565b601f821115610c6c57610c3d81610b17565b610c4684610b29565b81016020851015610c55578190505b610c69610c6185610b29565b830182610c09565b50505b505050565b5f82821c905092915050565b5f610c8c5f1984600802610c71565b1980831691505092915050565b5f610ca48383610c7d565b9150826002028217905092915050565b610cbd8261063d565b67ffffffffffffffff811115610cd657610cd56108aa565b5b610ce08254610a6f565b610ceb828285610c2b565b5f60209050601f831160018114610d1c575f8415610d0a578287015190505b610d148582610c99565b865550610d7b565b601f198416610d2a86610b17565b5f5b82811015610d5157848901518255600182019150602085019450602081019050610d2c565b86831015610d6e5784890151610d6a601f891682610c7d565b8355505b6001600288020188555050505b50505050505056fea264697066735822122043bec8a53ba4f122fc3ef8dba7c415a244ae40631c6fd5041f09a72def2a3f7664736f6c634300081a0033",
					"opcodes": "PUSH1 0x80 PUSH1 0x40 MSTORE CALLVALUE DUP1 ISZERO PUSH1 0xE JUMPI PUSH0 DUP1 REVERT JUMPDEST POP PUSH2 0xDB9 DUP1 PUSH2 0x1C PUSH0 CODECOPY PUSH0 RETURN INVALID PUSH1 0x80 PUSH1 0x40 MSTORE CALLVALUE DUP1 ISZERO PUSH2 0xF JUMPI PUSH0 DUP1 REVERT JUMPDEST POP PUSH1 0x4 CALLDATASIZE LT PUSH2 0x3F JUMPI PUSH0 CALLDATALOAD PUSH1 0xE0 SHR DUP1 PUSH4 0x112F54E3 EQ PUSH2 0x43 JUMPI DUP1 PUSH4 0x12E7EE1C EQ PUSH2 0x73 JUMPI DUP1 PUSH4 0x7C9CD2BC EQ PUSH2 0xA3 JUMPI JUMPDEST PUSH0 DUP1 REVERT JUMPDEST PUSH2 0x5D PUSH1 0x4 DUP1 CALLDATASIZE SUB DUP2 ADD SWAP1 PUSH2 0x58 SWAP2 SWAP1 PUSH2 0x5F0 JUMP JUMPDEST PUSH2 0xBF JUMP JUMPDEST PUSH1 0x40 MLOAD PUSH2 0x6A SWAP2 SWAP1 PUSH2 0x71C JUMP JUMPDEST PUSH1 0x40 MLOAD DUP1 SWAP2 SUB SWAP1 RETURN JUMPDEST PUSH2 0x8D PUSH1 0x4 DUP1 CALLDATASIZE SUB DUP2 ADD SWAP1 PUSH2 0x88 SWAP2 SWAP1 PUSH2 0x73C JUMP JUMPDEST PUSH2 0x22C JUMP JUMPDEST PUSH1 0x40 MLOAD PUSH2 0x9A SWAP2 SWAP1 PUSH2 0x882 JUMP JUMPDEST PUSH1 0x40 MLOAD DUP1 SWAP2 SUB SWAP1 RETURN JUMPDEST PUSH2 0xBD PUSH1 0x4 DUP1 CALLDATASIZE SUB DUP2 ADD SWAP1 PUSH2 0xB8 SWAP2 SWAP1 PUSH2 0x9CE JUMP JUMPDEST PUSH2 0x3BC JUMP JUMPDEST STOP JUMPDEST PUSH2 0xC7 PUSH2 0x517 JUMP JUMPDEST PUSH0 DUP1 DUP5 PUSH20 0xFFFFFFFFFFFFFFFFFFFFFFFFFFFFFFFFFFFFFFFF AND PUSH20 0xFFFFFFFFFFFFFFFFFFFFFFFFFFFFFFFFFFFFFFFF AND DUP2 MSTORE PUSH1 0x20 ADD SWAP1 DUP2 MSTORE PUSH1 0x20 ADD PUSH0 KECCAK256 DUP3 DUP2 SLOAD DUP2 LT PUSH2 0x115 JUMPI PUSH2 0x114 PUSH2 0xA15 JUMP JUMPDEST JUMPDEST SWAP1 PUSH0 MSTORE PUSH1 0x20 PUSH0 KECCAK256 SWAP1 PUSH1 0x4 MUL ADD PUSH1 0x40 MLOAD DUP1 PUSH1 0x80 ADD PUSH1 0x40 MSTORE SWAP1 DUP2 PUSH0 DUP3 ADD PUSH0 SWAP1 SLOAD SWAP1 PUSH2 0x100 EXP SWAP1 DIV PUSH20 0xFFFFFFFFFFFFFFFFFFFFFFFFFFFFFFFFFFFFFFFF AND PUSH20 0xFFFFFFFFFFFFFFFFFFFFFFFFFFFFFFFFFFFFFFFF AND PUSH20 0xFFFFFFFFFFFFFFFFFFFFFFFFFFFFFFFFFFFFFFFF AND DUP2 MSTORE PUSH1 0x20 ADD PUSH1 0x1 DUP3 ADD DUP1 SLOAD PUSH2 0x190 SWAP1 PUSH2 0xA6F JUMP JUMPDEST DUP1 PUSH1 0x1F ADD PUSH1 0x20 DUP1 SWAP2 DIV MUL PUSH1 0x20 ADD PUSH1 0x40 MLOAD SWAP1 DUP2 ADD PUSH1 0x40 MSTORE DUP1 SWAP3 SWAP2 SWAP1 DUP2 DUP2 MSTORE PUSH1 0x20 ADD DUP3 DUP1 SLOAD PUSH2 0x1BC SWAP1 PUSH2 0xA6F JUMP JUMPDEST DUP1 ISZERO PUSH2 0x207 JUMPI DUP1 PUSH1 0x1F LT PUSH2 0x1DE JUMPI PUSH2 0x100 DUP1 DUP4 SLOAD DIV MUL DUP4 MSTORE SWAP2 PUSH1 0x20 ADD SWAP2 PUSH2 0x207 JUMP JUMPDEST DUP3 ADD SWAP2 SWAP1 PUSH0 MSTORE PUSH1 0x20 PUSH0 KECCAK256 SWAP1 JUMPDEST DUP2 SLOAD DUP2 MSTORE SWAP1 PUSH1 0x1 ADD SWAP1 PUSH1 0x20 ADD DUP1 DUP4 GT PUSH2 0x1EA JUMPI DUP3 SWAP1 SUB PUSH1 0x1F AND DUP3 ADD SWAP2 JUMPDEST POP POP POP POP POP DUP2 MSTORE PUSH1 0x20 ADD PUSH1 0x2 DUP3 ADD SLOAD DUP2 MSTORE PUSH1 0x20 ADD PUSH1 0x3 DUP3 ADD SLOAD DUP2 MSTORE POP POP SWAP1 POP SWAP3 SWAP2 POP POP JUMP JUMPDEST PUSH1 0x60 PUSH0 DUP1 DUP4 PUSH20 0xFFFFFFFFFFFFFFFFFFFFFFFFFFFFFFFFFFFFFFFF AND PUSH20 0xFFFFFFFFFFFFFFFFFFFFFFFFFFFFFFFFFFFFFFFF AND DUP2 MSTORE PUSH1 0x20 ADD SWAP1 DUP2 MSTORE PUSH1 0x20 ADD PUSH0 KECCAK256 DUP1 SLOAD DUP1 PUSH1 0x20 MUL PUSH1 0x20 ADD PUSH1 0x40 MLOAD SWAP1 DUP2 ADD PUSH1 0x40 MSTORE DUP1 SWAP3 SWAP2 SWAP1 DUP2 DUP2 MSTORE PUSH1 0x20 ADD PUSH0 SWAP1 JUMPDEST DUP3 DUP3 LT ISZERO PUSH2 0x3B1 JUMPI DUP4 DUP3 SWAP1 PUSH0 MSTORE PUSH1 0x20 PUSH0 KECCAK256 SWAP1 PUSH1 0x4 MUL ADD PUSH1 0x40 MLOAD DUP1 PUSH1 0x80 ADD PUSH1 0x40 MSTORE SWAP1 DUP2 PUSH0 DUP3 ADD PUSH0 SWAP1 SLOAD SWAP1 PUSH2 0x100 EXP SWAP1 DIV PUSH20 0xFFFFFFFFFFFFFFFFFFFFFFFFFFFFFFFFFFFFFFFF AND PUSH20 0xFFFFFFFFFFFFFFFFFFFFFFFFFFFFFFFFFFFFFFFF AND PUSH20 0xFFFFFFFFFFFFFFFFFFFFFFFFFFFFFFFFFFFFFFFF AND DUP2 MSTORE PUSH1 0x20 ADD PUSH1 0x1 DUP3 ADD DUP1 SLOAD PUSH2 0x30E SWAP1 PUSH2 0xA6F JUMP JUMPDEST DUP1 PUSH1 0x1F ADD PUSH1 0x20 DUP1 SWAP2 DIV MUL PUSH1 0x20 ADD PUSH1 0x40 MLOAD SWAP1 DUP2 ADD PUSH1 0x40 MSTORE DUP1 SWAP3 SWAP2 SWAP1 DUP2 DUP2 MSTORE PUSH1 0x20 ADD DUP3 DUP1 SLOAD PUSH2 0x33A SWAP1 PUSH2 0xA6F JUMP JUMPDEST DUP1 ISZERO PUSH2 0x385 JUMPI DUP1 PUSH1 0x1F LT PUSH2 0x35C JUMPI PUSH2 0x100 DUP1 DUP4 SLOAD DIV MUL DUP4 MSTORE SWAP2 PUSH1 0x20 ADD SWAP2 PUSH2 0x385 JUMP JUMPDEST DUP3 ADD SWAP2 SWAP1 PUSH0 MSTORE PUSH1 0x20 PUSH0 KECCAK256 SWAP1 JUMPDEST DUP2 SLOAD DUP2 MSTORE SWAP1 PUSH1 0x1 ADD SWAP1 PUSH1 0x20 ADD DUP1 DUP4 GT PUSH2 0x368 JUMPI DUP3 SWAP1 SUB PUSH1 0x1F AND DUP3 ADD SWAP2 JUMPDEST POP POP POP POP POP DUP2 MSTORE PUSH1 0x20 ADD PUSH1 0x2 DUP3 ADD SLOAD DUP2 MSTORE PUSH1 0x20 ADD PUSH1 0x3 DUP3 ADD SLOAD DUP2 MSTORE POP POP DUP2 MSTORE PUSH1 0x20 ADD SWAP1 PUSH1 0x1 ADD SWAP1 PUSH2 0x289 JUMP JUMPDEST POP POP POP POP SWAP1 POP SWAP2 SWAP1 POP JUMP JUMPDEST PUSH2 0x118 PUSH2 0xFFFF AND DUP2 MLOAD GT ISZERO PUSH2 0x406 JUMPI PUSH1 0x40 MLOAD PUSH32 0x8C379A000000000000000000000000000000000000000000000000000000000 DUP2 MSTORE PUSH1 0x4 ADD PUSH2 0x3FD SWAP1 PUSH2 0xAF9 JUMP JUMPDEST PUSH1 0x40 MLOAD DUP1 SWAP2 SUB SWAP1 REVERT JUMPDEST PUSH0 PUSH1 0x40 MLOAD DUP1 PUSH1 0x80 ADD PUSH1 0x40 MSTORE DUP1 CALLER PUSH20 0xFFFFFFFFFFFFFFFFFFFFFFFFFFFFFFFFFFFFFFFF AND DUP2 MSTORE PUSH1 0x20 ADD DUP4 DUP2 MSTORE PUSH1 0x20 ADD TIMESTAMP DUP2 MSTORE PUSH1 0x20 ADD PUSH0 DUP2 MSTORE POP SWAP1 POP PUSH0 DUP1 CALLER PUSH20 0xFFFFFFFFFFFFFFFFFFFFFFFFFFFFFFFFFFFFFFFF AND PUSH20 0xFFFFFFFFFFFFFFFFFFFFFFFFFFFFFFFFFFFFFFFF AND DUP2 MSTORE PUSH1 0x20 ADD SWAP1 DUP2 MSTORE PUSH1 0x20 ADD PUSH0 KECCAK256 DUP2 SWAP1 DUP1 PUSH1 0x1 DUP2 SLOAD ADD DUP1 DUP3 SSTORE DUP1 SWAP2 POP POP PUSH1 0x1 SWAP1 SUB SWAP1 PUSH0 MSTORE PUSH1 0x20 PUSH0 KECCAK256 SWAP1 PUSH1 0x4 MUL ADD PUSH0 SWAP1 SWAP2 SWAP1 SWAP2 SWAP1 SWAP2 POP PUSH0 DUP3 ADD MLOAD DUP2 PUSH0 ADD PUSH0 PUSH2 0x100 EXP DUP2 SLOAD DUP2 PUSH20 0xFFFFFFFFFFFFFFFFFFFFFFFFFFFFFFFFFFFFFFFF MUL NOT AND SWAP1 DUP4 PUSH20 0xFFFFFFFFFFFFFFFFFFFFFFFFFFFFFFFFFFFFFFFF AND MUL OR SWAP1 SSTORE POP PUSH1 0x20 DUP3 ADD MLOAD DUP2 PUSH1 0x1 ADD SWAP1 DUP2 PUSH2 0x4FC SWAP2 SWAP1 PUSH2 0xCB4 JUMP JUMPDEST POP PUSH1 0x40 DUP3 ADD MLOAD DUP2 PUSH1 0x2 ADD SSTORE PUSH1 0x60 DUP3 ADD MLOAD DUP2 PUSH1 0x3 ADD SSTORE POP POP POP POP JUMP JUMPDEST PUSH1 0x40 MLOAD DUP1 PUSH1 0x80 ADD PUSH1 0x40 MSTORE DUP1 PUSH0 PUSH20 0xFFFFFFFFFFFFFFFFFFFFFFFFFFFFFFFFFFFFFFFF AND DUP2 MSTORE PUSH1 0x20 ADD PUSH1 0x60 DUP2 MSTORE PUSH1 0x20 ADD PUSH0 DUP2 MSTORE PUSH1 0x20 ADD PUSH0 DUP2 MSTORE POP SWAP1 JUMP JUMPDEST PUSH0 PUSH1 0x40 MLOAD SWAP1 POP SWAP1 JUMP JUMPDEST PUSH0 DUP1 REVERT JUMPDEST PUSH0 DUP1 REVERT JUMPDEST PUSH0 PUSH20 0xFFFFFFFFFFFFFFFFFFFFFFFFFFFFFFFFFFFFFFFF DUP3 AND SWAP1 POP SWAP2 SWAP1 POP JUMP JUMPDEST PUSH0 PUSH2 0x58C DUP3 PUSH2 0x563 JUMP JUMPDEST SWAP1 POP SWAP2 SWAP1 POP JUMP JUMPDEST PUSH2 0x59C DUP2 PUSH2 0x582 JUMP JUMPDEST DUP2 EQ PUSH2 0x5A6 JUMPI PUSH0 DUP1 REVERT JUMPDEST POP JUMP JUMPDEST PUSH0 DUP2 CALLDATALOAD SWAP1 POP PUSH2 0x5B7 DUP2 PUSH2 0x593 JUMP JUMPDEST SWAP3 SWAP2 POP POP JUMP JUMPDEST PUSH0 DUP2 SWAP1 POP SWAP2 SWAP1 POP JUMP JUMPDEST PUSH2 0x5CF DUP2 PUSH2 0x5BD JUMP JUMPDEST DUP2 EQ PUSH2 0x5D9 JUMPI PUSH0 DUP1 REVERT JUMPDEST POP JUMP JUMPDEST PUSH0 DUP2 CALLDATALOAD SWAP1 POP PUSH2 0x5EA DUP2 PUSH2 0x5C6 JUMP JUMPDEST SWAP3 SWAP2 POP POP JUMP JUMPDEST PUSH0 DUP1 PUSH1 0x40 DUP4 DUP6 SUB SLT ISZERO PUSH2 0x606 JUMPI PUSH2 0x605 PUSH2 0x55B JUMP JUMPDEST JUMPDEST PUSH0 PUSH2 0x613 DUP6 DUP3 DUP7 ADD PUSH2 0x5A9 JUMP JUMPDEST SWAP3 POP POP PUSH1 0x20 PUSH2 0x624 DUP6 DUP3 DUP7 ADD PUSH2 0x5DC JUMP JUMPDEST SWAP2 POP POP SWAP3 POP SWAP3 SWAP1 POP JUMP JUMPDEST PUSH2 0x637 DUP2 PUSH2 0x582 JUMP JUMPDEST DUP3 MSTORE POP POP JUMP JUMPDEST PUSH0 DUP2 MLOAD SWAP1 POP SWAP2 SWAP1 POP JUMP JUMPDEST PUSH0 DUP3 DUP3 MSTORE PUSH1 0x20 DUP3 ADD SWAP1 POP SWAP3 SWAP2 POP POP JUMP JUMPDEST DUP3 DUP2 DUP4 MCOPY PUSH0 DUP4 DUP4 ADD MSTORE POP POP POP JUMP JUMPDEST PUSH0 PUSH1 0x1F NOT PUSH1 0x1F DUP4 ADD AND SWAP1 POP SWAP2 SWAP1 POP JUMP JUMPDEST PUSH0 PUSH2 0x67F DUP3 PUSH2 0x63D JUMP JUMPDEST PUSH2 0x689 DUP2 DUP6 PUSH2 0x647 JUMP JUMPDEST SWAP4 POP PUSH2 0x699 DUP2 DUP6 PUSH1 0x20 DUP7 ADD PUSH2 0x657 JUMP JUMPDEST PUSH2 0x6A2 DUP2 PUSH2 0x665 JUMP JUMPDEST DUP5 ADD SWAP2 POP POP SWAP3 SWAP2 POP POP JUMP JUMPDEST PUSH2 0x6B6 DUP2 PUSH2 0x5BD JUMP JUMPDEST DUP3 MSTORE POP POP JUMP JUMPDEST PUSH0 PUSH1 0x80 DUP4 ADD PUSH0 DUP4 ADD MLOAD PUSH2 0x6D1 PUSH0 DUP7 ADD DUP3 PUSH2 0x62E JUMP JUMPDEST POP PUSH1 0x20 DUP4 ADD MLOAD DUP5 DUP3 SUB PUSH1 0x20 DUP7 ADD MSTORE PUSH2 0x6E9 DUP3 DUP3 PUSH2 0x675 JUMP JUMPDEST SWAP2 POP POP PUSH1 0x40 DUP4 ADD MLOAD PUSH2 0x6FE PUSH1 0x40 DUP7 ADD DUP3 PUSH2 0x6AD JUMP JUMPDEST POP PUSH1 0x60 DUP4 ADD MLOAD PUSH2 0x711 PUSH1 0x60 DUP7 ADD DUP3 PUSH2 0x6AD JUMP JUMPDEST POP DUP1 SWAP2 POP POP SWAP3 SWAP2 POP POP JUMP JUMPDEST PUSH0 PUSH1 0x20 DUP3 ADD SWAP1 POP DUP2 DUP2 SUB PUSH0 DUP4 ADD MSTORE PUSH2 0x734 DUP2 DUP5 PUSH2 0x6BC JUMP JUMPDEST SWAP1 POP SWAP3 SWAP2 POP POP JUMP JUMPDEST PUSH0 PUSH1 0x20 DUP3 DUP5 SUB SLT ISZERO PUSH2 0x751 JUMPI PUSH2 0x750 PUSH2 0x55B JUMP JUMPDEST JUMPDEST PUSH0 PUSH2 0x75E DUP5 DUP3 DUP6 ADD PUSH2 0x5A9 JUMP JUMPDEST SWAP2 POP POP SWAP3 SWAP2 POP POP JUMP JUMPDEST PUSH0 DUP2 MLOAD SWAP1 POP SWAP2 SWAP1 POP JUMP JUMPDEST PUSH0 DUP3 DUP3 MSTORE PUSH1 0x20 DUP3 ADD SWAP1 POP SWAP3 SWAP2 POP POP JUMP JUMPDEST PUSH0 DUP2 SWAP1 POP PUSH1 0x20 DUP3 ADD SWAP1 POP SWAP2 SWAP1 POP JUMP JUMPDEST PUSH0 PUSH1 0x80 DUP4 ADD PUSH0 DUP4 ADD MLOAD PUSH2 0x7A5 PUSH0 DUP7 ADD DUP3 PUSH2 0x62E JUMP JUMPDEST POP PUSH1 0x20 DUP4 ADD MLOAD DUP5 DUP3 SUB PUSH1 0x20 DUP7 ADD MSTORE PUSH2 0x7BD DUP3 DUP3 PUSH2 0x675 JUMP JUMPDEST SWAP2 POP POP PUSH1 0x40 DUP4 ADD MLOAD PUSH2 0x7D2 PUSH1 0x40 DUP7 ADD DUP3 PUSH2 0x6AD JUMP JUMPDEST POP PUSH1 0x60 DUP4 ADD MLOAD PUSH2 0x7E5 PUSH1 0x60 DUP7 ADD DUP3 PUSH2 0x6AD JUMP JUMPDEST POP DUP1 SWAP2 POP POP SWAP3 SWAP2 POP POP JUMP JUMPDEST PUSH0 PUSH2 0x7FB DUP4 DUP4 PUSH2 0x790 JUMP JUMPDEST SWAP1 POP SWAP3 SWAP2 POP POP JUMP JUMPDEST PUSH0 PUSH1 0x20 DUP3 ADD SWAP1 POP SWAP2 SWAP1 POP JUMP JUMPDEST PUSH0 PUSH2 0x819 DUP3 PUSH2 0x767 JUMP JUMPDEST PUSH2 0x823 DUP2 DUP6 PUSH2 0x771 JUMP JUMPDEST SWAP4 POP DUP4 PUSH1 0x20 DUP3 MUL DUP6 ADD PUSH2 0x835 DUP6 PUSH2 0x781 JUMP JUMPDEST DUP1 PUSH0 JUMPDEST DUP6 DUP2 LT ISZERO PUSH2 0x870 JUMPI DUP5 DUP5 SUB DUP10 MSTORE DUP2 MLOAD PUSH2 0x851 DUP6 DUP3 PUSH2 0x7F0 JUMP JUMPDEST SWAP5 POP PUSH2 0x85C DUP4 PUSH2 0x803 JUMP JUMPDEST SWAP3 POP PUSH1 0x20 DUP11 ADD SWAP10 POP POP PUSH1 0x1 DUP2 ADD SWAP1 POP PUSH2 0x838 JUMP JUMPDEST POP DUP3 SWAP8 POP DUP8 SWAP6 POP POP POP POP POP POP SWAP3 SWAP2 POP POP JUMP JUMPDEST PUSH0 PUSH1 0x20 DUP3 ADD SWAP1 POP DUP2 DUP2 SUB PUSH0 DUP4 ADD MSTORE PUSH2 0x89A DUP2 DUP5 PUSH2 0x80F JUMP JUMPDEST SWAP1 POP SWAP3 SWAP2 POP POP JUMP JUMPDEST PUSH0 DUP1 REVERT JUMPDEST PUSH0 DUP1 REVERT JUMPDEST PUSH32 0x4E487B7100000000000000000000000000000000000000000000000000000000 PUSH0 MSTORE PUSH1 0x41 PUSH1 0x4 MSTORE PUSH1 0x24 PUSH0 REVERT JUMPDEST PUSH2 0x8E0 DUP3 PUSH2 0x665 JUMP JUMPDEST DUP2 ADD DUP2 DUP2 LT PUSH8 0xFFFFFFFFFFFFFFFF DUP3 GT OR ISZERO PUSH2 0x8FF JUMPI PUSH2 0x8FE PUSH2 0x8AA JUMP JUMPDEST JUMPDEST DUP1 PUSH1 0x40 MSTORE POP POP POP JUMP JUMPDEST PUSH0 PUSH2 0x911 PUSH2 0x552 JUMP JUMPDEST SWAP1 POP PUSH2 0x91D DUP3 DUP3 PUSH2 0x8D7 JUMP JUMPDEST SWAP2 SWAP1 POP JUMP JUMPDEST PUSH0 PUSH8 0xFFFFFFFFFFFFFFFF DUP3 GT ISZERO PUSH2 0x93C JUMPI PUSH2 0x93B PUSH2 0x8AA JUMP JUMPDEST JUMPDEST PUSH2 0x945 DUP3 PUSH2 0x665 JUMP JUMPDEST SWAP1 POP PUSH1 0x20 DUP2 ADD SWAP1 POP SWAP2 SWAP1 POP JUMP JUMPDEST DUP3 DUP2 DUP4 CALLDATACOPY PUSH0 DUP4 DUP4 ADD MSTORE POP POP POP JUMP JUMPDEST PUSH0 PUSH2 0x972 PUSH2 0x96D DUP5 PUSH2 0x922 JUMP JUMPDEST PUSH2 0x908 JUMP JUMPDEST SWAP1 POP DUP3 DUP2 MSTORE PUSH1 0x20 DUP2 ADD DUP5 DUP5 DUP5 ADD GT ISZERO PUSH2 0x98E JUMPI PUSH2 0x98D PUSH2 0x8A6 JUMP JUMPDEST JUMPDEST PUSH2 0x999 DUP5 DUP3 DUP6 PUSH2 0x952 JUMP JUMPDEST POP SWAP4 SWAP3 POP POP POP JUMP JUMPDEST PUSH0 DUP3 PUSH1 0x1F DUP4 ADD SLT PUSH2 0x9B5 JUMPI PUSH2 0x9B4 PUSH2 0x8A2 JUMP JUMPDEST JUMPDEST DUP2 CALLDATALOAD PUSH2 0x9C5 DUP5 DUP3 PUSH1 0x20 DUP7 ADD PUSH2 0x960 JUMP JUMPDEST SWAP2 POP POP SWAP3 SWAP2 POP POP JUMP JUMPDEST PUSH0 PUSH1 0x20 DUP3 DUP5 SUB SLT ISZERO PUSH2 0x9E3 JUMPI PUSH2 0x9E2 PUSH2 0x55B JUMP JUMPDEST JUMPDEST PUSH0 DUP3 ADD CALLDATALOAD PUSH8 0xFFFFFFFFFFFFFFFF DUP2 GT ISZERO PUSH2 0xA00 JUMPI PUSH2 0x9FF PUSH2 0x55F JUMP JUMPDEST JUMPDEST PUSH2 0xA0C DUP5 DUP3 DUP6 ADD PUSH2 0x9A1 JUMP JUMPDEST SWAP2 POP POP SWAP3 SWAP2 POP POP JUMP JUMPDEST PUSH32 0x4E487B7100000000000000000000000000000000000000000000000000000000 PUSH0 MSTORE PUSH1 0x32 PUSH1 0x4 MSTORE PUSH1 0x24 PUSH0 REVERT JUMPDEST PUSH32 0x4E487B7100000000000000000000000000000000000000000000000000000000 PUSH0 MSTORE PUSH1 0x22 PUSH1 0x4 MSTORE PUSH1 0x24 PUSH0 REVERT JUMPDEST PUSH0 PUSH1 0x2 DUP3 DIV SWAP1 POP PUSH1 0x1 DUP3 AND DUP1 PUSH2 0xA86 JUMPI PUSH1 0x7F DUP3 AND SWAP2 POP JUMPDEST PUSH1 0x20 DUP3 LT DUP2 SUB PUSH2 0xA99 JUMPI PUSH2 0xA98 PUSH2 0xA42 JUMP JUMPDEST JUMPDEST POP SWAP2 SWAP1 POP JUMP JUMPDEST PUSH0 DUP3 DUP3 MSTORE PUSH1 0x20 DUP3 ADD SWAP1 POP SWAP3 SWAP2 POP POP JUMP JUMPDEST PUSH32 0x547765657420697320746F6F206C6F6E67212100000000000000000000000000 PUSH0 DUP3 ADD MSTORE POP JUMP JUMPDEST PUSH0 PUSH2 0xAE3 PUSH1 0x13 DUP4 PUSH2 0xA9F JUMP JUMPDEST SWAP2 POP PUSH2 0xAEE DUP3 PUSH2 0xAAF JUMP JUMPDEST PUSH1 0x20 DUP3 ADD SWAP1 POP SWAP2 SWAP1 POP JUMP JUMPDEST PUSH0 PUSH1 0x20 DUP3 ADD SWAP1 POP DUP2 DUP2 SUB PUSH0 DUP4 ADD MSTORE PUSH2 0xB10 DUP2 PUSH2 0xAD7 JUMP JUMPDEST SWAP1 POP SWAP2 SWAP1 POP JUMP JUMPDEST PUSH0 DUP2 SWAP1 POP DUP2 PUSH0 MSTORE PUSH1 0x20 PUSH0 KECCAK256 SWAP1 POP SWAP2 SWAP1 POP JUMP JUMPDEST PUSH0 PUSH1 0x20 PUSH1 0x1F DUP4 ADD DIV SWAP1 POP SWAP2 SWAP1 POP JUMP JUMPDEST PUSH0 DUP3 DUP3 SHL SWAP1 POP SWAP3 SWAP2 POP POP JUMP JUMPDEST PUSH0 PUSH1 0x8 DUP4 MUL PUSH2 0xB73 PUSH32 0xFFFFFFFFFFFFFFFFFFFFFFFFFFFFFFFFFFFFFFFFFFFFFFFFFFFFFFFFFFFFFFFF DUP3 PUSH2 0xB38 JUMP JUMPDEST PUSH2 0xB7D DUP7 DUP4 PUSH2 0xB38 JUMP JUMPDEST SWAP6 POP DUP1 NOT DUP5 AND SWAP4 POP DUP1 DUP7 AND DUP5 OR SWAP3 POP POP POP SWAP4 SWAP3 POP POP POP JUMP JUMPDEST PUSH0 DUP2 SWAP1 POP SWAP2 SWAP1 POP JUMP JUMPDEST PUSH0 PUSH2 0xBB8 PUSH2 0xBB3 PUSH2 0xBAE DUP5 PUSH2 0x5BD JUMP JUMPDEST PUSH2 0xB95 JUMP JUMPDEST PUSH2 0x5BD JUMP JUMPDEST SWAP1 POP SWAP2 SWAP1 POP JUMP JUMPDEST PUSH0 DUP2 SWAP1 POP SWAP2 SWAP1 POP JUMP JUMPDEST PUSH2 0xBD1 DUP4 PUSH2 0xB9E JUMP JUMPDEST PUSH2 0xBE5 PUSH2 0xBDD DUP3 PUSH2 0xBBF JUMP JUMPDEST DUP5 DUP5 SLOAD PUSH2 0xB44 JUMP JUMPDEST DUP3 SSTORE POP POP POP POP JUMP JUMPDEST PUSH0 SWAP1 JUMP JUMPDEST PUSH2 0xBF9 PUSH2 0xBED JUMP JUMPDEST PUSH2 0xC04 DUP2 DUP5 DUP5 PUSH2 0xBC8 JUMP JUMPDEST POP POP POP JUMP JUMPDEST JUMPDEST DUP2 DUP2 LT ISZERO PUSH2 0xC27 JUMPI PUSH2 0xC1C PUSH0 DUP3 PUSH2 0xBF1 JUMP JUMPDEST PUSH1 0x1 DUP2 ADD SWAP1 POP PUSH2 0xC0A JUMP JUMPDEST POP POP JUMP JUMPDEST PUSH1 0x1F DUP3 GT ISZERO PUSH2 0xC6C JUMPI PUSH2 0xC3D DUP2 PUSH2 0xB17 JUMP JUMPDEST PUSH2 0xC46 DUP5 PUSH2 0xB29 JUMP JUMPDEST DUP2 ADD PUSH1 0x20 DUP6 LT ISZERO PUSH2 0xC55 JUMPI DUP2 SWAP1 POP JUMPDEST PUSH2 0xC69 PUSH2 0xC61 DUP6 PUSH2 0xB29 JUMP JUMPDEST DUP4 ADD DUP3 PUSH2 0xC09 JUMP JUMPDEST POP POP JUMPDEST POP POP POP JUMP JUMPDEST PUSH0 DUP3 DUP3 SHR SWAP1 POP SWAP3 SWAP2 POP POP JUMP JUMPDEST PUSH0 PUSH2 0xC8C PUSH0 NOT DUP5 PUSH1 0x8 MUL PUSH2 0xC71 JUMP JUMPDEST NOT DUP1 DUP4 AND SWAP2 POP POP SWAP3 SWAP2 POP POP JUMP JUMPDEST PUSH0 PUSH2 0xCA4 DUP4 DUP4 PUSH2 0xC7D JUMP JUMPDEST SWAP2 POP DUP3 PUSH1 0x2 MUL DUP3 OR SWAP1 POP SWAP3 SWAP2 POP POP JUMP JUMPDEST PUSH2 0xCBD DUP3 PUSH2 0x63D JUMP JUMPDEST PUSH8 0xFFFFFFFFFFFFFFFF DUP2 GT ISZERO PUSH2 0xCD6 JUMPI PUSH2 0xCD5 PUSH2 0x8AA JUMP JUMPDEST JUMPDEST PUSH2 0xCE0 DUP3 SLOAD PUSH2 0xA6F JUMP JUMPDEST PUSH2 0xCEB DUP3 DUP3 DUP6 PUSH2 0xC2B JUMP JUMPDEST PUSH0 PUSH1 0x20 SWAP1 POP PUSH1 0x1F DUP4 GT PUSH1 0x1 DUP2 EQ PUSH2 0xD1C JUMPI PUSH0 DUP5 ISZERO PUSH2 0xD0A JUMPI DUP3 DUP8 ADD MLOAD SWAP1 POP JUMPDEST PUSH2 0xD14 DUP6 DUP3 PUSH2 0xC99 JUMP JUMPDEST DUP7 SSTORE POP PUSH2 0xD7B JUMP JUMPDEST PUSH1 0x1F NOT DUP5 AND PUSH2 0xD2A DUP7 PUSH2 0xB17 JUMP JUMPDEST PUSH0 JUMPDEST DUP3 DUP2 LT ISZERO PUSH2 0xD51 JUMPI DUP5 DUP10 ADD MLOAD DUP3 SSTORE PUSH1 0x1 DUP3 ADD SWAP2 POP PUSH1 0x20 DUP6 ADD SWAP5 POP PUSH1 0x20 DUP2 ADD SWAP1 POP PUSH2 0xD2C JUMP JUMPDEST DUP7 DUP4 LT ISZERO PUSH2 0xD6E JUMPI DUP5 DUP10 ADD MLOAD PUSH2 0xD6A PUSH1 0x1F DUP10 AND DUP3 PUSH2 0xC7D JUMP JUMPDEST DUP4 SSTORE POP JUMPDEST PUSH1 0x1 PUSH1 0x2 DUP9 MUL ADD DUP9 SSTORE POP POP POP JUMPDEST POP POP POP POP POP POP JUMP INVALID LOG2 PUSH5 0x6970667358 0x22 SLT KECCAK256 NUMBER 0xBE 0xC8 0xA5 EXTCODESIZE LOG4 CALL 0x22 0xFC RETURNDATACOPY 0xF8 0xDB 0xA7 0xC4 ISZERO LOG2 PREVRANDAO 0xAE BLOCKHASH PUSH4 0x1C6FD504 0x1F MULMOD 0xA7 0x2D 0xEF 0x2A EXTCODEHASH PUSH23 0x64736F6C634300081A0033000000000000000000000000 "
				},
				"gasEstimates": {
					"creation": {
						"codeDepositCost": "702600",
						"executionCost": "732",
						"totalCost": "703332"
					},
					"external": {
						"createTweet(string)": "infinite",
						"getAllTweets(address)": "infinite",
						"getTweet(address,uint256)": "infinite"
					}
				},
				"methodIdentifiers": {
					"createTweet(string)": "7c9cd2bc",
					"getAllTweets(address)": "12e7ee1c",
					"getTweet(address,uint256)": "112f54e3"
				}
			},
			"storageLayout": {
				"storage": [
					{
						"astId": 19,
						"contract": "contracts/Twitter.sol:Twitter",
						"label": "tweets",
						"offset": 0,
						"slot": "0",
						"type": "t_mapping(t_address,t_array(t_struct(Tweet)13_storage)dyn_storage)"
					}
				],
				"types": {
					"t_address": {
						"encoding": "inplace",
						"label": "address",
						"numberOfBytes": "20"
					},
					"t_array(t_struct(Tweet)13_storage)dyn_storage": {
						"base": "t_struct(Tweet)13_storage",
						"encoding": "dynamic_array",
						"label": "struct Twitter.Tweet[]",
						"numberOfBytes": "32"
					},
					"t_mapping(t_address,t_array(t_struct(Tweet)13_storage)dyn_storage)": {
						"encoding": "mapping",
						"key": "t_address",
						"label": "mapping(address => struct Twitter.Tweet[])",
						"numberOfBytes": "32",
						"value": "t_array(t_struct(Tweet)13_storage)dyn_storage"
					},
					"t_string_storage": {
						"encoding": "bytes",
						"label": "string",
						"numberOfBytes": "32"
					},
					"t_struct(Tweet)13_storage": {
						"encoding": "inplace",
						"label": "struct Twitter.Tweet",
						"members": [
							{
								"astId": 6,
								"contract": "contracts/Twitter.sol:Twitter",
								"label": "author",
								"offset": 0,
								"slot": "0",
								"type": "t_address"
							},
							{
								"astId": 8,
								"contract": "contracts/Twitter.sol:Twitter",
								"label": "content",
								"offset": 0,
								"slot": "1",
								"type": "t_string_storage"
							},
							{
								"astId": 10,
								"contract": "contracts/Twitter.sol:Twitter",
								"label": "timestamp",
								"offset": 0,
								"slot": "2",
								"type": "t_uint256"
							},
							{
								"astId": 12,
								"contract": "contracts/Twitter.sol:Twitter",
								"label": "likes",
								"offset": 0,
								"slot": "3",
								"type": "t_uint256"
							}
						],
						"numberOfBytes": "128"
					},
					"t_uint256": {
						"encoding": "inplace",
						"label": "uint256",
						"numberOfBytes": "32"
					}
				}
			},
			"userdoc": {
				"kind": "user",
				"methods": {},
				"version": 1
			}
		}
	}
}